:100000000C943F000C9400000C9400000C94000031
:100010000C9400000C9400000C9400000C94000060
:100020000C9400000C9400000C9400000C946B00E5
:100030000C9400000C9400000C9400000C94000040
:100040000C9400000C9400000C9400000C94000030
:100050000C940000000000000000000000002D4E85
:10006000414E000001002D4E414E00494E46000019
:100070000A000400540001007C0264000000F894AF
:10008000EE27ECBBF1E0F5BFE5BF8DE0A2E0BB27BA
:10009000ED938A95E9F780E098E0A0E6ED9301976B
:1000A000E9F7E0E7F0E085919591009761F0A5917F
:1000B000B59105901590BF01F00105900D92019743
:1000C000E1F7FB01F0CFEFE5EDBFE8E0EEBFC0E602
:1000D000D2E00C94EE01EA93FA93EFB7EA93E2EBE5
:1000E000E2BFE1E0E51521F4939AF40131964F0166
:1000F000E4EFF1E0E815F90521F4939888249924B8
:100100005524E1E0E41531F45E2E939A969AF501B8
:1001100031965F01E4EFF1E0EA15FB0531F49698C2
:100120009398AA24BB2444245524E1E0E71521F444
:10013000919AF60131966F01E8EEF3E0EC15FD05BA
:1001400021F49198CC24DD247724E991EFBFF99133
:10015000E9911895AA93E881E7B98BE18A95F1F7BF
:10016000369A349BFECF349AE4B1F5B168C0ECE125
:10017000EABBE0E8EBBBE0E0E7BBE8BBE6EDE4BBF5
:10018000E7ECE5BBEAE7E1BBE0E0E2BBE5E0E3BFCB
:10019000E2EBE2BFE0E0ECBFE1E0E9BFE0E0E7B9BD
:1001A000E3E8E6B9E0E0E0BF78940895AA931A93F3
:1001B00010E01830C8F4E981E07811F4AF9801C07C
:1001C000AF9A8DE08A95F1F7E981EE0FE983A99A5C
:1001D0008DE08A95F1F7E0E09899E1E0A981EA2BBA
:1001E000E983A9981F5FE5CF18811BC0AA93AE9839
:1001F0000E947D0224C0AA93AE98E981E062AE2FEE
:100200000DC0AA93AE98E981E062AE2FCFDFA8813E
:10021000CDDFA881CBDFA881C9DFA881C7DF0E941D
:100220007D0222960895AA93AE98E3E0EA93A3E0B4
:10023000E2DF0E948502E0E1EA93A981E2DF2196F4
:100240000895AA9A88E795E00197F1F7AA98AE9ADF
:10025000A99888EC90E00197F1F70E948B02A2EE3A
:10026000C5DFA1EEC3DFE0E0EA93AFE1C4DFA2E0C7
:10027000B0E00E949502E5E0EA93A2E0BCDFE6E090
:10028000EA93A7E0B8DFEDE1EA93A4E0B4DFE1E0B0
:10029000EA93A0E017C0AA98E0E0EA93AEE1ABDFF2
:1002A00084E091E00197F1F708950E948B02A1EE9E
:1002B0009DDFA62DB8DFECE1EA93A1E09CDFE2E050
:1002C000EA93A1E098DF0895A62DADDF0E94850294
:1002D000A1EE6CDF0E948502A0EA68DFA0917202A5
:1002E00065DFA091740262DFA09176025FDFA091CA
:1002F00078025CDFAE9AAA9A88EE93E00197F1F754
:10030000AA980E948B02A62D8EDFA1EE6FDF0895C2
:10031000BA93AA932597E0E0E883E983EA83EB8325
:10032000EC830E94C6028A9A929A80EA8A95F1F733
:100330009298A9E1B0E00E949502929A8A9880EA88
:100340008A95F1F7829B02C0E0E044C0829BFECF19
:1003500080EA8A95F1F7829902C0E0E03BC0829979
:10036000FECF00E0053000F510E01830D8F4829B95
:10037000FECF85E88A95F1F7829B12C0E02FF0E06E
:10038000DE011496EA0FFB1FBF011080E7E0E11BBE
:10039000A1E00E949F02E129DB01EC938299FECF4C
:1003A0001F5FE3CF0F5FDECFED81AC81EA0FAE813F
:1003B000EA0FAF81EA0F3E2FE885E31711F0E0E086
:1003C00009C0EE81AB85BC85EC93EC81A985BA852B
:1003D000EC93E1E00E94CB022D960895E1EA6E2EA7
:1003E000C6DE78942EDF57DF60DFA1E0B3DEDF01E9
:1003F000E6E0F0E00E94B302E0936002F093610255
:10040000A0E0A8DEDF01EAE0F0E00E94B302E093A2
:100410006202F09363020E949002A336E0E0BE07FE
:1004200030F0EAE5F0E0E0936002F09361020E94B0
:100430009002EEE1F0E00E94AD020E2E0E949002CA
:10044000E8E2F0E00E94A702E02111F0E1E05E2E78
:100450000E949002D89710F0E1E04E2EEAE7F2E019
:10046000FA93EA93ABE7B2E053DFE03039F0E09182
:100470007A02F0E0E0936402F0936502A0916402D6
:10048000B0916502919710F0E1E07E2EA09162029A
:10049000B0916302AA35E0E0BE0730F0EAE5F0E093
:1004A000E0936202F0936302E0917A02F0E0E0935D
:1004B0007202F0937302E0917B02F0E0E093740229
:1004C000F0937502E0916002F0916102E093760290
:1004D000F0937702A0916202B0916302EAE5F0E046
:1004E000EA1BFB0BE0937802F0937902EDDEA8ECB7
:1004F000B0E00E94950279CFFFCFA8810E94D6007C
:10050000AE9A8BE18A95F1F70895AE9A8BE18A95C0
:10051000F1F7AE980895E7E0EA93AEE70C94FB009C
:10052000A0916002B09161020895109639F080EDBB
:1005300097E00197F1F7A8951197C9F70895EE2371
:100540000E2EEA2F19F0EE0F0A94E9F70895EA1734
:10055000FB07E1E008F4EE270895EA17FB07E1E066
:1005600008F0EE2708950024112490E1AA0FBB1F84
:10057000001C111C0E1A1F0A18F40E0E1F1E01C0BB
:10058000A1609A9599F7FD01D00108953A932A93B5
:100590001A930A9308953B812A811981088108954D
:00000001FF
