:100000000C942B010C9400000C9400000C94000044
:100010000C9400000C9400000C9400000C94000060
:100020000C9400000C9400000C9400000C94000050
:100030000C9400000C9400000C9400000C94000040
:100040000C9400000C9400000C9400000C94000030
:100050000C94000005072060000000000000000470
:100060000A040007000700147F147F14242A7F2A43
:10007000122313086462364955225000050300001C
:10008000001C2241000041221C00082A1C2A0808EA
:10009000083E080800503000000808080808003032
:1000A00030000020100804023E5149453E00427FC6
:1000B000400042615149462141454B311814127F9D
:1000C0001027454545393C4A494930017109050326
:1000D0003649494936064949291E0036360000008E
:1000E000563600000008142241141414141441223E
:1000F0001408000201510906324979413E7E11116E
:10010000117E7F494949363E414141227F4141228A
:100110001C7F494949417F090901013E4141513252
:100120007F0808087F00417F41002040413F017F58
:10013000081422417F404040407F0204027F7F0438
:1001400008107F3E4141413E7F090909063E415169
:10015000215E7F09192946464949493101017F013C
:10016000013F4040403F1F2040201F7F2018207F3C
:100170006314081463030478040361514945430080
:10018000007F4141020408102041417F0000040229
:100190000102044040404040000102040020545449
:1001A00054787F48444438384444442038444448D0
:1001B0007F3854545418087E090102081454543CE2
:1001C0007F0804047800447D40002040443D000046
:1001D0007F10284400417F40007C041804787C088C
:1001E00004047838444444387C1414140808141463
:1001F000187C7C080404084854545420043F4440AC
:10020000203C4040207C1C2040201C3C4030403C96
:1002100044281028440C5050503C4464544C440032
:100220000836410000007F0000004136080002014E
:100230000204027F4141417F000103070F1F3F7FFE
:10024000FF0001002D4E414E00494E4600000100C6
:10025000770442020000F894EE27ECBBF1E0F5BF12
:10026000E5BF8DE0A2E0BB27ED938A95E9F780E03A
:1002700098E0A0E6ED930197E9F7EEE4F2E08591CE
:100280009591009761F0A591B59105901590BF01EA
:10029000F00105900D920197E1F7FB01F0CFEFE53A
:1002A000EDBFE8E0EEBFC0E6D2E00C94570128971E
:1002B000E0E0EABBE2E0EBBBE0E0E7BBE8BBE4BBCD
:1002C000E5BBE1BBE2BBE3BFE2BFECBFEFBDEEBD10
:1002D000EDBDECBDE7BDE6BDEBBDEABDE9BDE8BDEA
:1002E000E2BDE5BDE4BDE3BDE9BFE5BFE4BFEAB9FA
:1002F000E0E8E8B9E0E0E7B9E3E8E6B9E0E0E0BF6C
:10030000EDB9E6BFE4E5F0E0E883F983E0E0EA83F5
:10031000EB83EC83ED83EE81EC7FEE83E37EEC6098
:10032000EE83EF81E078E263EF83DE0157D0FFCF09
:10033000FFCF0895AA931A93A99818E0FADFE981EC
:10034000E07811F0AB9A01C0AB98E981EE0FE98338
:10035000F0DFAC9AEEDFAC98115081F7A99A1881C2
:1003600012C1AA93AA98A881E5DFC0C0AA93AA9A4D
:10037000A881E0DFBBC0AA931A93E981E695E695D0
:10038000E6951E2FE4E5E19FF001DF01EA81F0E050
:10039000EA0FFB1FE0937D02F0937E02E12F1881AC
:1003A00023960895AA93E981E068AE2FDADFE98108
:1003B000EA93A981E0DFE064AE2FD3DFE4C0AA9323
:1003C000ADE7B2E0ED91FD913196FE93EE9331975A
:1003D000E158FD4FA881A083C9DF88C0BA93AA93D2
:1003E0000E94EE02A19AA99AA49AAC98A39AA29A02
:1003F000A09AA898AAE0B0E00E94DC02A89AEC813A
:10040000FD81309721F1E681E3701E2FEC81FD81A3
:10041000E681E695E695E7700E2FEC81FD81E78198
:10042000EF773E2FAC81BD810E94E602E09364022B
:10043000F093650212960E94E602E0937902F0932F
:100440007A02AC81BD8114960E94E6020DC010E0D4
:1004500003E032E3E0E0F0E0E0936402F093650251
:10046000E0937902F0937A02E0937B02F0937C02AE
:10047000A1E277DFE12FE460AE2F73DFE02FE061D0
:10048000AE2F6FDFE32FE068AE2F6BDFA0E269DFF6
:10049000A1E023D0E1E0E0936002E0E0E0936102BC
:1004A000E1E0E0936602E0936702E0936802EFEF19
:1004B000E0936902E1E0E0937002E1E7F2E0FA9391
:1004C000EA93EFEFEA93A8E0B0E00E94C50210D0F3
:1004D000E1E00E94F30226960895AA93E881E030B5
:1004E00011F0ECE001C0E8E0AE2F3BDF219608956B
:1004F0000E94EE0230E0E0916102E03009F03FEF4F
:10050000E0E0EA93A0E04EDF08EF11E0F8010150CF
:100510001040309719F0A32F52DFF8CFE0E0EA93B4
:10052000A0E026D00E94F302249608950E94D502EE
:100530001CF0E0E0F0E027C0A881B981A435E0E03C
:10054000BE071CF0E3E5F0E01EC0E881F9811BC0A6
:100550000E94D5021CF0E0E0F0E015C0A881B9814E
:10056000D0971CF0EFE2F0E00EC0E881F9810BC0FB
:10057000AA93A981BB27DADFE0936202A881BB2797
:10058000E7DFE093630222960895BA93AA93B981B4
:10059000A881109631F0FC81EB816A8161931197FB
:1005A000E9F7EB81FC8125960895BA93AA93A88177
:1005B000B9810E94EA020895109639F080ED97E023
:1005C0000197F1F7A8951197C9F70895ED91FC915E
:1005D0001197089500240A160B0608953A932A935A
:1005E0001A930A9308953B812A81198108810895FD
:00000001FF
