:080000000C9485020C94000031
:100008000C9400000C9400000C9400000C94000068
:100018000C9400000C9400000C9400000C94000058
:100028000C9400000C9400000C9400000C94000048
:100038000C9400000C9400000C9400000C94000038
:100048000C9400000C9400000C940000050720603C
:1000580000000000000000040A0400070007001464
:100068007F147F14242A7F2A1223130864623649D6
:100078005522500005030000001C224100004122C7
:100088001C00082A1C2A0808083E080800503000EE
:100098000008080808080030300000201008040292
:1000A8003E5149453E00427F400042615149462148
:1000B80041454B311814127F1027454545393C4AB4
:1000C8004949300171090503364949493606494904
:1000D800291E00363600000056360000000814229B
:1000E8004114141414144122140800020151090681
:1000F800324979413E7E1111117E7F494949363E88
:10010800414141227F4141221C7F494949417F09A0
:100118000901013E414151327F0808087F00417FB3
:1001280041002040413F017F081422417F40404068
:10013800407F0204027F7F0408107F3E4141413E18
:100148007F090909063E4151215E7F091929464662
:100158004949493101017F01013F4040403F1F208B
:1001680040201F7F2018207F63140814630304783D
:100178000403615149454300007F414102040810CE
:100188002041417F000004020102044040404040F9
:10019800000102040020545454787F4844443838FD
:1001A80044444420384444487F3854545418087E02
:1001B800090102081454543C7F0804047800447D63
:1001C80040002040443D00007F10284400417F400B
:1001D800007C041804787C080404783844444438C3
:1001E8007C14141408081414187C7C0804040848A7
:1001F80054545420043F4440203C4040207C1C2060
:1002080040201C3C4030403C44281028440C5050AE
:10021800503C4464544C44000836410000007F00C0
:1002280000004136080002010204027F4141417F7B
:10023800060A300CFEFF0303FFFE0103030303015C
:100248000406FFFF000003030303030386C7E373E9
:100258003F1E03030303030386873333FFFE0103B3
:10026800030303017F7F6060FCFC000000000303C0
:100278009F9F1B1BFBF3010303030301FEFF3333A3
:10028800F7E60103030303010303C3F33F07000079
:1002980003030000FEFF3333FFFE010303030301E2
:1002A8009EBF3333FFFE010303030301FFFF00007A
:1002B8000000030303030303FFFF3030FFFF0303C2
:1002C8000000030354003000FF0101010101010196
:1002D8000101010101010101010101995921D1C95E
:1002E800014181010519218181812119050181417E
:1002F8000101FF01010101010101010101010101E8
:100308000101010101995921D1C90101010101012D
:100318000101010181613D61810101FFFF000000D0
:1003280000000000000000000000000000000000C5
:1003380000000000C4643411107E61404040211E5A
:10034800181134E40400FF00000000000000000061
:100358000000000000000000000000000000000095
:100368008060180F1860800E31404040390E00FF41
:10037800FF808080808080808080808080808080F6
:100388008080808080808080838484848484848446
:1003980086868484848486838080FF8080808080B1
:1003A8008080808080808080808080808080808045
:1003B80080808080838C9090908F838080808080E4
:1003C800808080FFFF0000000000000000000000A7
:1003D8000000000000C02020C000C0E060600000F5
:1003E80000000000F80404F8000000000000FF000E
:1003F80000000000000000000000000000000000F5
:10040800000000000000000000C0301E30C00000E6
:1004180000000000000000FFFF00000000000000D6
:1004280000000000000000000000010101000307B7
:100438000606000000000080FFF0F0FF80000000CA
:100448000000FF00000000000000000000000000A5
:100458000000000000000000008080808798A0A0B5
:10046800A098878080808080000000FFFF808080C7
:100478008080808080808080808080808080808074
:1004880080808080808080808080878F9F9F9F9FD2
:100498008F8780808080FF808080808080808080BF
:1004A80080808080808080809098949A95909A9C93
:1004B800909594909E9690948A848281808080FF03
:1004C800000103070F1F3F7FFF003339003332005D
:1004D8003333003B000001002D4E414E00494E468B
:1004E800000003006002D20403006302D504030085
:1004F8006602D80402006902DB0401008204DE04FB
:100508000000F894EE27ECBBF1E0F5BFE5BF8DE005
:10051800A2E0BB27ED938A95E9F780E098E0A0E692
:10052800ED930197E9F7EAEEF4E08591959100974C
:1005380061F0A591B59105901590BF01F001059066
:100548000D920197E1F7FB01F0CFEFE5EDBFE8E091
:10055800EEBFC0E6D2E00C94B1022897E0E0EABB17
:10056800EBBBE7BBE8BBE4BBE5BBE1BBE2BBE3BF7E
:10057800E2BFECBFEFBDEEBDEDBDECBDE7BDE6BD36
:10058800EBBDEABDE9BDE8BDE2BDE5BDE4BDE3BD47
:10059800E9BFE5BFE4BFEAB9E0E8E8B9E0E0E0BFF9
:1005A800E6B9EDB9E6BFE4E5F0E0E883F983E0E019
:1005B800EA83EB83EC83ED83EE81EC7FEE83E37ECD
:1005C800E860EE83EF81E078E263EF83DE01ABD091
:1005D800E0E0EA93EA93ECECF2E0FA93EA93A0E025
:1005E8000E94CB07E8E3F2E00E949609E4E0EA9370
:1005F800E7E0EA93A0E6B2E00E949B09E0E0EA9314
:10060800E1E1EA93A0E00E94A909E7E0EA93A3E602
:10061800B2E00E94AE09E0E0EA93EBE3EA93A0E0DF
:100628000E941F08E4E0EA93E0E2EA93A6E6B2E05B
:100638000E949B09E0E3EA93E1E1EA93A0E30E94C8
:100648001F08E2E3EA93E0E2EA93A9E6B2E00E9437
:10065800AE09E0E3EA93EBE3EA93A0E30E941F0804
:10066800A0EDB7E00E944B0ABDCFFFCF0895AA9333
:100678001A93A99818E0FADFE981E07811F0AB9AAB
:1006880001C0AB98E981EE0FE983F0DFAC9AEEDFA9
:10069800AC98115081F7A99A18810C942E09AA9345
:1006A800AA98A881E4DFC6C0AA93AA9AA881DFDF26
:1006B800C1C0AA931A93E981E695E695E6951E2F9F
:1006C800E4E5E19FF001DF01EA81F0E0EA0FFB1FBA
:1006D800E0938802F0938902E12F18812396089508
:1006E800AA93E981E068AE2FDADFE981EA93A9816C
:1006F800E0DFE064AE2FD3DF0C942E09AA93E981E2
:10070800EA93A981EDDFE0918802F0918902E6572A
:10071800FD4FE0810C942E09AA930E94B809A88184
:10072800A083C2DF87C0BA93AA930E94B80AA19A8D
:10073800A99AA49AAC98A39AA29AA09AA898AAE06F
:10074800B0E00E944B0AA89AEC81FD81309721F114
:10075800E681E3701E2FEC81FD81E681E695E69542
:10076800E7700E2FEC81FD81E781EF773E2FAC819A
:10077800BD810E94910A0E949609AC81BD811296A2
:100788000E94910AE0938402F0938502AC81BD81B6
:1007980014960E94910A0DC010E003E032E3E0E0F5
:1007A800F0E00E949609E0E0F0E0E0938402F09324
:1007B8008502E0938602F0938702A1E270DFE12FC1
:1007C800E460AE2F6CDFE02FE061AE2F68DFE32F2F
:1007D800E068AE2F64DFA0E262DFA1E022D0E1E0B2
:1007E800E0936B02E0E0E0936C02E1E0E0937102D9
:1007F800E0937202E0937302EFEFE0937402E1E09A
:10080800E0937B02ECE7F2E0FA93EA93EFEFEA93E6
:10081800A8E0B0E00E9415090FD0E1E00E94BF0AED
:1008280086C0AA93E881E03011F0ECE001C0E8E06E
:10083800AE2F35DF219608950E94B80A30E0E09186
:100848006C02E03009F03FEFE0E0EA93A0E048DF17
:1008580008EF11E0F80101501040309719F0A32F6C
:100868005BDFF8CFE0E0EA93A0E0D9D30E94BF0AAB
:100878000C949409AA931A930A93AC81A43518F49A
:10088800AB81A03320F0198108810C942309EC81F5
:10089800EA93AC8133DF1E2FEB81E770A1E00E9461
:1008A800590A0E2FEA81E03011F0102B03C0E02F17
:1008B800E0951E23A12F30DF198108810C942309AC
:1008C800AA931A93ED81EA93AD8118DF1E2FE9816F
:1008D800E73011F0E83039F4EB81EA93AA810E94FD
:1008E8003009EB8308C0E33021F4EB81E095EB831A
:1008F80002C0E03021F4EA81E0951E2302C0E23014
:1009080029F4EA81AB81EA231E2B0EC0E13029F4D9
:10091800EA81AB81EA231E2707C0E43029F4EA8183
:10092800E095AB81EA2B1E23A12FF6DE18812696CF
:100938000895AA9323970E94B60AA889A43548F473
:10094800AF85A03330F4AE85A03019F0AD85A03066
:1009580009F4CCC1EE85E887A889BB27EE85F0E0CD
:10096800AE0FBF1FA535E0E0BE0720F0A889E4E57B
:10097800EA1BEE872D85AF85BB27ED85F0E0AE0F2E
:10098800BF1FD19720F0AF85E0E3EA1BED87A9856B
:10099800A63009F05BC0EC85E13009F4A7C1E3306B
:1009A80039F4E0918602F0918702309709F49EC1EC
:1009B8000885ED85E695E695E6953E2FE22FE770EA
:1009C80019F4AD852A17E9F0A02FBB27E32FF0E033
:1009D8000E94690AAA85BB850E94C30926952695A7
:1009E8002695532F5F935F5FE22FAF91EA1748F088
:1009F800102FE12F1150E03019F00E94C809F9CFEB
:100A0800F1CFAE850A1711F1EE85AA85BB85F0E016
:100A18000E94C309ED85E77009F03F5F20E02F933E
:100A28002F5FE32FAF91AE1788F41E851F931F5FCA
:100A3800E02FAF91AE1718F40E94C809F7CFEE85E2
:100A4800AE81BF81F0E00E94C309E9CFEF85E7706E
:100A58003E2FED85E03009F449C1EA85FB85EE8338
:100A6800FF8310E00889303009F063C0AD85A830F5
:100A780008F45AC0E985E03011F0E33009F402C007
:100A8800E73009F402C0E83009F402C0E93009F49B
:100A980002C0EA3021F40A93A88922DE04C0E630B5
:100AA80011F40E94D5091F931F5FEE85AF91AE1711
:100AB800A0F5A985A63051F40E94D909FA93EA93C2
:100AC8000E94B809A0810E94770926C0E985E9300B
:100AD80011F450E00EC0EA3011F45FEF0AC00E9432
:100AE800D9090E94E2095E2FE985E73011F0E83064
:100AF80021F40E94E8095E2F06C0E33011F45095F6
:100B080002C0E03019F4A52FCFDD06C00E94EC0921
:100B1800EFEFEA93AD85D4DEC6CFEF85E85FEF87C8
:100B2800ED85E850ED87D9C05D8520E0E0E0ED87F0
:100B38007EC0E32FAD85AE0FA93020F42D85E0E00F
:100B4800ED8703C0E8E0E31B2E2F3A93A22F0E9403
:100B580025094E2FE985E63011F50E94D5091F9326
:100B68001F5FEE85AF91AE17C8F40E94B809E08107
:100B7800E423AE2FE32F0E94610A0E94F209E32FBB
:100B8800A42F0E94610AE095E1215E2B0E94D909F9
:100B9800FA93EA93A52F0E947709E1CF2CC0E93098
:100BA80011F450E003C0EA30A9F45FEF0E94E809AD
:100BB800AE2FE32F0E94590A5E2F1F931F5FEE8509
:100BC800AF91AE1730F40E94EC094A93A0E078DEAA
:100BD800F4CF11C01F931F5FEE85AF91AE1758F485
:100BE8000E94FD09AE2FE32F0E94590AEA934A9307
:100BF800AD8566DEEFCFED85E03009F477C0AD85D1
:100C0800A83028F4ED85E21B5E2FE0E003C0532FE7
:100C1800ED85E850ED8710E0EF85E85FEF87E8E0C5
:100C2800E31B2E2F0889EA85FB85EE83FF83E52FDA
:100C3800F0E0E853FB4F4491E985E63011F50E9456
:100C4800D5091F931F5FEE85AF91AE17C8F40E94B8
:100C5800B809E081E423AE2FE22F0E94590A0E94CE
:100C6800F209E22FA42F0E94590AE095E1215E2B98
:100C78000E94D909FA93EA93A52F0E947709E1CF38
:100C88002CC0E93011F450E003C0EA30A9F45FEF5A
:100C98000E94E809AE2FE22F0E94610A5E2F1F937F
:100CA8001F5FEE85AF91AE1730F40E94EC094A93AE
:100CB800A0E006DEF4CF11C01F931F5FEE85AF9151
:100CC800AE1758F40E94FD09AE2FE22F0E94610A68
:100CD800EA934A93AD85F4DDEFCFE885AA85BB8515
:100CE800F0E0EA0FFB1FEA87FB87B3CE0E94BD0A3C
:100CF800619608950E940A0A24F0E0E0F0E00C945E
:100D08002E09A881B981A435E0E0BE0724F0E3E507
:100D1800F0E00C942E09E881F9810C942E090E94C8
:100D28000A0A24F0E0E0F0E00C942E09A881B981C9
:100D3800D09724F0EFE2F0E00C942E09E881F981D5
:100D48000C942E09AA931A93AA81A43518F4A981A0
:100D5800A03338F0E0E0F0E060E070E018810C9437
:100D68007509E981E7701E2FE981E695E695E69514
:100D7800E983103011F0EF5FE983AA81BB27882748
:100D88009927E981FF27662777270E94710AEC5F78
:100D9800FF4F6F4F7F4F18810C947509BA93AA9330
:100DA80023970E94110A8F01002E012A19F4E0E00E
:100DB800F0E05FC00E94180A0F820E94180A0E8293
:100DC8000E94180A0886EB85A885EA1718F4E0E05F
:100DD800F0E04FC0F8010F5F1F4F5491A885BB2763
:100DE800EE27A50FBE1FEB85F0E0EA17FB0718F00A
:100DF800E0E0F0E03EC0EE81E695E695E6954E2F00
:100E0800EE81E77009F04F5FEF81E030A1F0A9852E
:100E1800BA85EC93A885EB85EA1BF0E0DF01EF814A
:100E2800F0E00E94690ADF01E42FF0E00E94690AFD
:100E3800E00FF11F1EC09801E52FF0E00E0F1F1FF5
:100E4800A885AF5FA887A150EB85AE1760F4F901BC
:100E58002F5F3F4FA491B0E0E42FF0E00E94690AB1
:100E68000E0F1F1FEDCFF901E491A985BA85EC9308
:100E7800F8010E94BD0A2C960895E0E0E0936D0207
:100E8800A0916E02BB270E941D0AF0E0AE0FBF1FA3
:100E9800E0917202F0E0AE0FBF1F41DFE0936E02F7
:100EA8000895AA9321970E94110A309709F455C012
:100EB800AF81AA3009F44FC0EF81EA93DE0117969B
:100EC8006DDFAF01309709F44AC0E0917102AE813D
:100ED800EA0F3E2FA0916D02BB27F0E0EA0FFB1F3F
:100EE8008F010535E0E01E0718F0032F1127C5DF35
:100EF800E0916D02EA93E0916E02EA93E885EA9345
:100F08000E941D0AEA93E1E0EA935A934A93A7E004
:100F180010DDE0916D02AE81EA0FEA93E0916E0276
:100F2800EA93E0917102EA930E941D0A0E94240A42
:100F3800E0916D02EA93A0916E020E941D0AEA0FE9
:100F4800EA933A93E09172020E94240AE4E5F0E001
:100F5800E017F10711F491DF02C000936D020E94BF
:100F6800BD0A28960895BA93AA931A93EC81EA9336
:100F7800AC8155D0A981BA81ED91A983BA831E2F7E
:100F8800E03019F0A12F8DDFF5CF188158C1AA9351
:100F98000E94B80AAC81A53000F5ED81FE8105916B
:100FA8000E942E0A15910E942E0A25910E942E0A4F
:100FB8003591ED83FE83E885EA93E885EA930A9301
:100FC8002A93E1E0EA93EA85FB85FA93EA93AB85F5
:100FD800B0DC0A93A22FB6DE04C0E0E0F0E060E0E7
:100FE80070E00E94BF0A29960895AA93EA81EA93BD
:100FF800EA81EA93E0917402AA81EA2319F0E09168
:101008006B0202C0E0916C02AE2F34DCE881EE0F77
:10101800E883E03011F4E1E0E883E88162C1AA9353
:10102800A981BB2767DEE0936D02A881BB2777DE25
:10103800E0936E020FC1AA932B970E94B60AAC895F
:10104800BB2758DEEC8BAA89BB2754DEEA8BAB8919
:10105800BB2765DEEB8BA989BB2761DEE98BEA89B3
:10106800E0936D02E989E0936E02E1E0E887E9899F
:10107800AB89EA1771F51C89AA891A1731F41A93F2
:10108800EC89EA93A1E0B1DFC8C0AA891A1730F445
:10109800EA89E11B0E2F41E050E006C0AA89E12F42
:1010A800EA1B0E2F4FEF5FEF3B89E0E0EE830E94D3
:1010B800310A38F41A933A933395AA8596DFEF8369
:1010C800F6CFEF81E887140FE02F0150E03061F789
:1010D800A4C0EA89AC89EA1739F53B89A9893A1786
:1010E80030F4E989E31B2E2FE1E0F0E006C0A9897E
:1010F800E32FEA1B2E2FEFEFFFEFED87FE871C890A
:10110800E0E0EE830E94310A30F41A9313950E94AE
:10111800390AEF83F7CFEF81E887ED853E0FE22F9D
:101128002150E03061F779C0E0E0EE830E94310A97
:1011380008F073C01C893B89E1E02E2F0E2FAA8985
:10114800BB27EC89F0E0AE1BBF0BAD0155232AF499
:101158000FEFFA010E94550AAF01FA01EE0FFF1FC7
:10116800EF87F88BA989BB27EB89F0E0AE1BBF0B93
:10117800AD87BE87AE85AA233AF42FEFED85FE85AD
:101188000E94550AED87FE87ED85FE85EE0FFF1F4D
:10119800EB87FC871A933A93A1E027DFE887E0E022
:1011A800E987EA87AD85BE854A175B07BCF0100F53
:1011B800EB85FC850E943D0AA985BA854A175B071D
:1011C8002CF4320FAF85B8890E94440A1A930E9402
:1011D800390AE887EA89E11751F718C0320FEF8515
:1011E800F8890E943D0AED85FE85A985BA85EA172A
:1011F800FB072CF4100FAB85BC850E94440A1A9398
:101208000E94390AE887E989E31741F7EB89EF5F1C
:10121800EB8BE989EF5FE98B89CF0E94BD0A659660
:101228000895BA93AA93B981A881109631F0FC81E8
:10123800EB816A8161931197E9F7EB81FC8125962F
:101248000895AA93E881F0E0E853FB4FA491E9815F
:101258000E94590A22960895AA931A93E981E730C1
:1012680011F0EA3019F410916B0209C0E93019F451
:1012780010916C0204C0E830A1F410917B02E09157
:101288006C02E03049F0103019F0EFEF188129C0F6
:10129800EA81E095188125C0103019F4E0E0188142
:1012A80020C0EA8118811DC0BA93AA93EA81E1306F
:1012B80021F4E881F981E49114C0E23029F4A8818D
:1012C800B9810E94950A0DC0E33041F4A881B98123
:1012D800E0918402F0918502099503C0A881B98143
:1012E800EC9123960895AA93EB81E03029F4E881E4
:1012F800A981BA81EC9314C0E23031F4E881A98164
:10130800BA810E94A10A0CC0E33051F4E981FA8144
:10131800FA93EA93AA81E0918602F09187020995EF
:1013280024960895E0936F02F093700208950E9446
:10133800B707E3E0EA93E7E1EA93E4E1EA93A7E198
:101348000E941F08E3E0EA9308950E941F08EEE256
:10135800EA9308950E94B707EEE2EA93E7E1EA9379
:10136800EBE3EA93A7E1F1CFA8E8B2E0ED91FD91B4
:101378003196FE93EE933197E657FD4F0895EA0FA5
:10138800FB1FEE83FF830895EC85EA93EF81F885D0
:101398003196EF83F8873197FA93EA93A0E00C949B
:1013A80077090A93A8890C945D03EC85EA93EF8189
:1013B800F8853196EF83F887319708956627772760
:1013C800DF01CB010C9458095A93AA850C94300973
:1013D8000A930395E889EA935A9308955E2FEC855A
:1013E800EA93AF81B885882799270E9458091E2E4D
:1013F80008950A930395E889EA93EE85EA93E985C7
:10140800FA853196E987FA873197D8CFBA93AA93A4
:10141800A881B9810E94B20A08950E94B60AE09193
:101428006F02F09170020895F8010F5F1F4F04904A
:101438000895E0916F02F09170023196E491089559
:10144800EA93E0E0EA93E0E0F0E0FA93EA93A9E0B7
:101458000C949D04ED83FE830895AE81AF5FAE8347
:10146800A150E0917302AE1708953A93AA850C949F
:10147800F907A985BA85EA0FFB1FE987FA87089556
:10148800E985FA85EA1BFB0BE987FA870895109628
:1014980039F080ED97E00197F1F7A8951197C9F712
:1014A8000895F195E195F0400895EE230E2EEA2F68
:1014B80019F0EE0F0A94E9F70895EE230E2EEA2F9D
:1014C80019F0E6950A94E9F70895FA9FF02DEB9F35
:1014D800F00DEA9FE02DF10D08957A9F702D6B9F16
:1014E800700DF89F700DE99F700D6A9F602D710D4A
:1014F800FB9F600D711DE89F600D711D8827FA9F85
:10150800F02D610D781FEB9FF00D611D781FEA9F8C
:10151800E02DF10D681F781F0895ED91FC9111974A
:101528000895E199FECFFF93FFB7F894AEBBBFBB18
:10153800E09AEDB3FFBFFF910895E19B02C0A89523
:10154800FCCF9FB7F894AEBBBFBBE09A8DB3E8174A
:1015580019F0EDBBE29AE19A9FBF089500240A169C
:101568000B0608955A934A933A932A931A930A9327
:1015780008955D814C813B812A81198108810895F4
:00000001FF
