:020000000C945E
:100002007E020C9400000C9400000C9400000C94EE
:1000120000000C9400000C9400000C9400000C945E
:1000220000000C9400000C9400000C9400000C944E
:1000320000000C9400000C9400000C9400000C943E
:1000420000000C9400000C9400000C9400000C942E
:1000520000000507206000000000000000040A0400
:100062000007000700147F147F14242A7F2A12231A
:100072001308646236495522500005030000001C33
:100082002241000041221C00082A1C2A0808083EBE
:100092000808005030000008080808080030300046
:1000A2000020100804023E5149453E00427F4000B4
:1000B20042615149462141454B311814127F1027A4
:1000C200454545393C4A49493001710905033649DC
:1000D200494936064949291E00363600000056367F
:1000E20000000008142241141414141441221408AC
:1000F200000201510906324979413E7E1111117EF9
:100102007F494949363E414141227F4141221C7F7C
:10011200494949417F090901013E414151327F0864
:1001220008087F00417F41002040413F017F0814C1
:1001320022417F404040407F0204027F7F0408103A
:100142007F3E4141413E7F090909063E4151215E00
:100152007F09192946464949493101017F01013F79
:100162004040403F1F2040201F7F2018207F631403
:100172000814630304780403615149454300007F76
:100182004141020408102041417F000004020102A3
:10019200044040404040000102040020545454787E
:1001A2007F484444383844444420384444487F38E3
:1001B20054545418087E090102081454543C7F0810
:1001C20004047800447D40002040443D00007F103C
:1001D200284400417F40007C041804787C08040411
:1001E2007838444444387C14141408081414187CD5
:1001F2007C080404084854545420043F4440203CE2
:100202004040207C1C2040201C3C4030403C442884
:100212001028440C5050503C4464544C440008365E
:10022200410000007F000000413608000201020484
:10023200027F4141417F54003000FF010101010171
:10024200010101010101010101010101019959218C
:10025200D1C901418101051921818181211905013C
:1002620081410101FF0101010101010101010101BE
:1002720001010101010101995921D1C901010101C4
:1002820001010101010181613D61810101FFFF0065
:10029200000000000000000000000000000000005C
:1002A200000000000000C4643411107E6140404030
:1002B200211E181134E40400FF00000000000000B9
:1002C200000000000000000000000000000000002C
:1002D20000008060180F1860800E31404040390ED7
:1002E20000FFFF808080808080808080808080808E
:1002F20080808080808080808080838484848484E5
:10030200848486868484848486838080FF8080803F
:1003120080808080808080808080808080808080DB
:10032200808080808080838C9090908F838080807A
:100332008080808080FFFF0000000000000000003D
:1003420000000000000000C02020C000C0E060608B
:10035200000000000000F80404F8000000000000A3
:10036200FF0000000000000000000000000000008C
:100372000000000000000000000000C0301E30C07D
:10038200000000000000000000FFFF00000000006D
:100392000000000000000000000000000101010058
:1003A20003070606000000000080FFF0F0FF800057
:1003B20000000000FF00000000000000000000003C
:1003C200000000000000000000000080808087988C
:1003D200A0A0A098878080808080000000FFFF801E
:1003E200808080808080808080808080808080800B
:1003F200808080808080808080808080878F9F9FA7
:100402009F9F8F8780808080FF8080808080808017
:10041200808080808080808080809098949A95905F
:100422009A9C909594909E9690948A8482818080E2
:1004320080FF060A300CFEFF0303FFFE01030303E5
:1004420003010406FFFF000003030303030386C73F
:10045200E3733F1E03030303030386873333FFFE65
:100462000103030303017F7F6060FCFC00000000C6
:1004720003039F9F1B1BFBF3010303030301FEFF07
:100482003333F7E60103030303010303C3F33F0717
:10049200000003030000FEFF3333FFFE01030303EA
:1004A20003019EBF3333FFFE010303030301FFFF7A
:1004B20000000000030303030303FFFF3030FFFFCC
:1004C200030300000303000103070F1F3F7FFF0028
:1004D2001027E80364000A00010000100001100068
:1004E20001002575000001002D4E414E00494E4687
:1004F200000001008104E8040000F894EE27ECBB40
:10050200F1E0F5BFE5BF8DE0A2E0BB27ED938A9550
:10051200E9F780E098E0A0E6ED930197E9F7E4EFD0
:10052200F4E085919591009761F0A591B5910590C0
:100532001590BF01F00105900D920197E1F7FB01C3
:10054200F0CFEFE5EDBFE8E0EEBFC0E6D2E00C94FD
:100552001103BA93AA932597E0E0E883E983EA833B
:10056200EB83EC830E944D0DB89AC09A80EA8A957B
:10057200F1F7C098A9E1B0E00E94CE0CC09AB898F9
:10058200ACE3B0E00E94CE0CB09B02C0E0E044C0FD
:10059200B09BFECF80EA8A95F1F7B09902C0E0E005
:1005A2003BC0B099FECF10E0153000F500E00830F6
:1005B200D8F4B09BFECF85E88A95F1F7B09B12C0C4
:1005C200E12FF0E0DE011496EA0FFB1FBF0110805D
:1005D200E5E0E01BA1E00E94E00CE129DB01EC93E5
:1005E200B099FECF0F5FE3CF1F5FDECFED81AC810D
:1005F200EA0FAE81EA0FAF81EA0F3E2FE885E317DB
:1006020011F0E0E009C0EE81AB85BC85EC93EC8192
:10061200A985BA85EC93E1E00E94540D2D960895C8
:100622002897E0E0EABBE2E0EBBBE0E0E7BBE8BB37
:10063200E4BBE5BBE1BBE2BBE3BFE2BFECBFEFBDA6
:10064200EEBDEDBDECBDE7BDE6BDEBBDEABDE9BD6E
:10065200E8BDE2BDE5BDE4BDE3BDE9BFE5BFE4BF82
:10066200EAB9E0E8E8B9E0E0E7B9E3EAE6B9E0E0F0
:10067200E0BFEDB9E6BFE4E5F0E0E883F983E0E04E
:10068200EA83EB83EC83ED83EE81EC7FEE83E37E02
:10069200E860EE83EF81E078E263EF83DE01CED0A3
:1006A200E0E0EA93EA93E8E3F2E0FA93EA93A0E067
:1006B2000E945108E4E3F4E00E94DE0BE5E0F0E082
:1006C200FA93EA93A4E0B0E044DFE030A9F00E949C
:1006D200E30BE42D0E94EC0BEFE20E94F60B0E946A
:1006E200FD0BE52D0E94EC0BE5E0EA93E7E0EA93CF
:1006F200A2E8B2E00E943C0860907D0277248090DC
:100702007F029924EAE5F0E0E615F7050CF43F01D3
:100712000E94E30BF3010E94060C0E94FD0BF40100
:100722000E94060CEEE20E94F60BEEE2EA93E7E18B
:10073200EA93EBE3EA93A7E10E94A708EEE2EA93C9
:10074200E0E0EA93EBE3EA93A0E00E94A708E4E08A
:10075200EA93E0E2EA93A2E8B2E00E943C08E3E016
:10076200EA93E7E1EA93E4E1EA93A7E10E94A708AA
:10077200E3E0EA93E0E3EA93E1E1EA93A0E30E9493
:10078200A70898CFFFCF0895AA931A93A99818E0C3
:10079200FADFE981E07811F0AB9A01C0AB98E98108
:1007A200EE0FE983F0DFAC9AEEDFAC98115081F7DF
:1007B200A99A18813AC0AA93AA98A881E5DFC5C070
:1007C200AA93AA9AA881E0DFC0C0AA931A93E981EA
:1007D200E695E695E6951E2FE4E5E19FF001DF013F
:1007E200EA81F0E0EA0FFB1FE0938702F0938802B0
:1007F200E12F188123960895AA93E981E068AE2F2C
:10080200DADFE981EA93A981E0DFE064AE2FD3DF8A
:100812000CC0AA93E981EA93A981EEDFE0918702F5
:10082200F0918802E757FD4FE08122960895AA933E
:100832000E940F0CA881A083C3DF87C0BA93AA933A
:100842000E944D0DA19AA99AA49AAC98A39AA29A31
:10085200A09AA898AAE0B0E00E94CE0CA89AEC81D7
:10086200FD81309721F1E681E3701E2FEC81FD813D
:10087200E681E695E695E7700E2FEC81FD81E78132
:10088200EF773E2FAC81BD810E941D0D0E94DE0BD1
:10089200AC81BD8112960E941D0DE0937902F09306
:1008A2007A02AC81BD8114960E941D0D0DC010E02C
:1008B20003E032E3E0E0F0E00E94DE0BE0E0F0E093
:1008C200E0937902F0937A02E0937B02F0937C0248
:1008D200A1E271DFE12FE460AE2F6DDFE02FE06176
:1008E200AE2F69DFE32FE068AE2F65DFA0E263DFA2
:1008F200A1E022D0E1E0E0936002E0E0E093610257
:10090200E1E0E0936602E0936702E0936802EFEFB2
:10091200E0936902E1E0E0937002E1E7F2E0FA932A
:10092200EA93EFEFEA93A8E0B0E00E94440B0FD005
:10093200E1E00E94540D83C0AA93E881E03011F0F7
:10094200ECE001C0E8E0AE2F36DF219608950E9468
:100952004D0D30E0E0916102E03009F03FEFE0E060
:10096200EA93A0E049DF08EF11E0F80101501040DE
:10097200309719F0A32F5BDFF8CFE0E0EA93A0E015
:10098200D8D30E94540D24960895AA931A930A93D9
:10099200AC81A43518F4AB81A03308F015C0EC810A
:1009A200EA93AC8136DF1E2FEB81E770A1E00E9453
:1009B200E00C0E2FEA81E03011F0102B03C0E02F83
:1009C200E0951E23A12F33DF198108812596089512
:1009D200AA931A93ED81EA93AD811BDF1E2FE98161
:1009E200E73011F0E83039F4EB81EA93AA810E94F2
:1009F200780BEB8308C0E33021F4EB81E095EB83C5
:100A020002C0E03021F4EA81E0951E2302C0E23008
:100A120029F4EA81AB81EA231E2B0EC0E13029F4CE
:100A2200EA81AB81EA231E2707C0E43029F4EA8178
:100A3200E095AB81EA2B1E23A12FF9DE18812696C1
:100A42000895AA9323970E944B0DA889A43548F4D0
:100A5200AF85A03330F4AE85A03019F0AD85A0305B
:100A620009F4CCC1EE85E887A889BB27EE85F0E0C2
:100A7200AE0FBF1FA535E0E0BE0720F0A889E4E570
:100A8200EA1BEE872D85AF85BB27ED85F0E0AE0F23
:100A9200BF1FD19720F0AF85E0E3EA1BED87A98560
:100AA200A63009F05BC0EC85E13009F4A7C1E33060
:100AB20039F4E0917B02F0917C02309709F49EC1F7
:100AC2000885ED85E695E695E6953E2FE22FE770DF
:100AD20019F4AD852A17E9F0A02FBB27E32FF0E028
:100AE2000E94F50CAA85BB850E941A0C26952695B4
:100AF2002695532F5F935F5FE22FAF91EA1748F07D
:100B0200102FE12F1150E03019F00E941F0CF9CF85
:100B1200F1CFAE850A1711F1EE85AA85BB85F0E00B
:100B22000E941A0CED85E77009F03F5F20E02F93D9
:100B32002F5FE32FAF91AE1788F41E851F931F5FBF
:100B4200E02FAF91AE1718F40E941F0CF7CFEE857D
:100B5200AE81BF81F0E00E941A0CE9CFEF85E77009
:100B62003E2FED85E03009F449C1EA85FB85EE832D
:100B7200FF8310E00889303009F063C0AD85A830EA
:100B820008F45AC0E985E03011F0E33009F402C0FC
:100B9200E73009F402C0E83009F402C0E93009F490
:100BA20002C0EA3021F40A93A88926DE04C0E630A6
:100BB20011F40E942C0C1F931F5FEE85AF91AE17AC
:100BC200A0F5A985A63051F40E94300CFA93EA935D
:100BD2000E940F0CA0810E94BF0B26C0E985E9305C
:100BE20011F450E00EC0EA3011F45FEF0AC00E9427
:100BF200300C0E94390C5E2FE985E73011F0E830A5
:100C020021F40E943F0C5E2F06C0E33011F4509590
:100C120002C0E03019F4A52FD3DD06C00E94430CB8
:100C2200EFEFEA93AD85D4DEC6CFEF85E85FEF87BD
:100C3200ED85E850ED87D9C05D8520E0E0E0ED87E5
:100C42007EC0E32FAD85AE0FA93020F42D85E0E004
:100C5200ED8703C0E8E0E31B2E2F3A93A22F0E94F8
:100C62006D0B4E2FE985E63011F50E942C0C1F9377
:100C72001F5FEE85AF91AE17C8F40E940F0CE081A2
:100C8200E423AE2FE32F0E94E80C0E94490CE32FCD
:100C9200A42F0E94E80CE095E1215E2B0E94300C0B
:100CA200FA93EA93A52F0E94BF0BE1CF2CC0E93043
:100CB20011F450E003C0EA30A9F45FEF0E943F0C48
:100CC200AE2FE32F0E94E00C5E2F1F931F5FEE8575
:100CD200AF91AE1730F40E94430C4A93A0E078DE45
:100CE200F4CF11C01F931F5FEE85AF91AE1758F47A
:100CF2000E94540CAE2FE32F0E94E00CEA934A9319
:100D0200AD8566DEEFCFED85E03009F477C0AD85C5
:100D1200A83028F4ED85E21B5E2FE0E003C0532FDC
:100D2200ED85E850ED8710E0EF85E85FEF87E8E0BA
:100D3200E31B2E2F0889EA85FB85EE83FF83E52FCF
:100D4200F0E0E853FB4F4491E985E63011F50E944B
:100D52002C0C1F931F5FEE85AF91AE17C8F40E9453
:100D62000F0CE081E423AE2FE22F0E94E00C0E94E0
:100D7200490CE22FA42F0E94E00CE095E1215E2BAA
:100D82000E94300CFA93EA93A52F0E94BF0BE1CF89
:100D92002CC0E93011F450E003C0EA30A9F45FEF4F
:100DA2000E943F0CAE2FE22F0E94E80C5E2F1F9391
:100DB2001F5FEE85AF91AE1730F40E94430C4A9349
:100DC200A0E006DEF4CF11C01F931F5FEE85AF9146
:100DD200AE1758F40E94540CAE2FE22F0E94E80C7A
:100DE200EA934A93AD85F4DDEFCFE885AA85BB850A
:100DF200F0E0EA0FFB1FEA87FB87B3CE0E94520D99
:100E0200619608950E94610C24F0E0E0F0E00C94F9
:100E1200760BA881B981A435E0E0BE0724F0E3E5B2
:100E2200F0E00C94760BE881F9810C94760B0E9429
:100E3200610C24F0E0E0F0E00C94760BA881B9811B
:100E4200D09724F0EFE2F0E00C94760BE881F98180
:100E52000C94760BAA931A93AA81A43518F4A9814B
:100E6200A03338F0E0E0F0E060E070E018810C942C
:100E7200BD0BE981E7701E2FE981E695E695E695BF
:100E8200E983103011F0EF5FE983AA81BB2788273D
:100E92009927E981FF27662777270E94FD0CEC5FDF
:100EA200FF4F6F4F7F4F18810C94BD0BBA93AA93DB
:100EB20023970E94680C8F01002E012A19F4E0E0AA
:100EC200F0E05FC00E946F0C0F820E946F0C0E82D6
:100ED2000E946F0C0886EB85A885EA1718F4E0E0FB
:100EE200F0E04FC0F8010F5F1F4F5491A885BB2758
:100EF200EE27A50FBE1FEB85F0E0EA17FB0718F0FF
:100F0200E0E0F0E03EC0EE81E695E695E6954E2FF4
:100F1200EE81E77009F04F5FEF81E030A1F0A98523
:100F2200BA85EC93A885EB85EA1BF0E0DF01EF813F
:100F3200F0E00E94F50CDF01E42FF0E00E94F50CD6
:100F4200E00FF11F1EC09801E52FF0E00E0F1F1FEA
:100F5200A885AF5FA887A150EB85AE1760F4F901B1
:100F62002F5F3F4FA491B0E0E42FF0E00E94F50C18
:100F72000E0F1F1FEDCFF901E491A985BA85EC93FD
:100F8200F8010E94520D2C960895E0E0E09362026F
:100F9200A0916302BB270E94740CF0E0AE0FBF1F4A
:100FA200E0916702F0E0AE0FBF1F41DFE093630202
:100FB2000895AA9321970E94680C309709F455C0AE
:100FC200AF81AA3009F44FC0EF81EA93DE01179690
:100FD2006DDFAF01309709F44AC0E0916602AE813D
:100FE200EA0F3E2FA0916202BB27F0E0EA0FFB1F3F
:100FF2008F010535E0E01E0718F0032F1127C5DF2A
:10100200E0916202EA93E0916302EA93E885EA934F
:101012000E94740CEA93E1E0EA935A934A93A7E0A0
:1010220010DDE0916202AE81EA0FEA93E091630281
:10103200EA93E0916602EA930E94740C0E947B0C90
:10104200E0916202EA93A09163020E94740CEA0F9B
:10105200EA933A93E09167020E947B0CE4E5F0E0A8
:10106200E017F10711F491DF02C0009362020E94BF
:10107200520D28960895BA93AA931A93EC81EA9393
:10108200AC8157D0A981BA81ED91A983BA831E2F71
:10109200E03019F0A12F8DDFF5CF18810C94520B9F
:1010A200AA930E944D0DAC81A53000F5ED81FE8121
:1010B20005910E94850C15910E94850C25910E9434
:1010C200850C3591ED83FE83E885EA93E885EA9302
:1010D2000A932A93E1E0EA93EA85FB85FA93EA937D
:1010E200AB85AFDC0A93A22FB5DE04C0E0E0F0E0EE
:1010F20060E070E00E94540D29960895AA93EA8157
:10110200EA93EA81EA93E0916902AA81EA2319F05B
:10111200E091600202C0E0916102AE2F36DCE8810C
:10112200EE0FE883E03011F4E1E0E883E8810C940B
:10113200BD0BAA93A981BB2765DEE0936202A88159
:10114200BB2775DEE09363020C94760BAA932B9770
:101152000E944B0DAC89BB2755DEEC8BAA89BB27BD
:1011620051DEEA8BAB89BB2762DEEB8BA989BB27F9
:101172005EDEE98BEA89E0936202E989E093630229
:10118200E1E0E887E989AB89EA1771F51C89AA8948
:101192001A1731F41A93EC89EA93A1E0AFDFC8C0C1
:1011A200AA891A1730F4EA89E11B0E2F41E050E0B8
:1011B20006C0AA89E12FEA1B0E2F4FEF5FEF3B8992
:1011C200E0E0EE830E94880C38F41A933A93339548
:1011D200AA8594DFEF83F6CFEF81E887140FE02F23
:1011E2000150E03061F7A4C0EA89AC89EA1739F509
:1011F2003B89A9893A1730F4E989E31B2E2FE1E0F4
:10120200F0E006C0A989E32FEA1B2E2FEFEFFFEFD4
:10121200ED87FE871C89E0E0EE830E94880C30F4A3
:101222001A9313950E94900CEF83F7CFEF81E88712
:10123200ED853E0FE22F2150E03061F779C0E0E00A
:10124200EE830E94880C08F073C01C893B89E1E0A0
:101252002E2F0E2FAA89BB27EC89F0E0AE1BBF0B05
:10126200AD0155232AF40FEFFA010E94DC0CAF0105
:10127200FA01EE0FFF1FEF87F88BA989BB27EB89D5
:10128200F0E0AE1BBF0BAD87BE87AE85AA233AF452
:101292002FEFED85FE850E94DC0CED87FE87ED8544
:1012A200FE85EE0FFF1FEB87FC871A933A93A1E0AE
:1012B20025DFE887E0E0E987EA87AD85BE854A1742
:1012C2005B07BCF0100FEB85FC850E94940CA9858E
:1012D200BA854A175B072CF4320FAF85B8890E9492
:1012E2009B0C1A930E94900CE887EA89E11751F748
:1012F20018C0320FEF85F8890E94940CED85FE85A7
:10130200A985BA85EA17FB072CF4100FAB85BC85BB
:101312000E949B0C1A930E94900CE887E989E317BC
:1013220041F7EB89EF5FEB8BE989EF5FE98B89CFBF
:101332000E94520D65960895BA93AA931A930A933E
:10134200AA81BB8112960E941D0D309759F1AA8184
:10135200BB8114960E941D0D8F01309761F00230FF
:10136200E0E01E0798F0F80131978F01AA81BB8156
:101372001496ED93FC93AA81BB811296ED91FD9197
:101382003196FE93EE933197AC81A083AA81BB8103
:101392000E941D0DFF232AF0ED91FD913196FE93DF
:1013A200EE9306C0AA81BB81EFEFFFEFED93FC93B2
:1013B2001981088176C1BA93AA9326970E944B0D90
:1013C20010E0AC85BD85E0E0F0E0ED93FC93EA89A6
:1013D200FB893196EA8BFB8B3197E4912E2FE0301B
:1013E20009F415C1E12FE03039F4253211F411E08E
:1013F20002C00E94A20C0AC1E130A9F4253219F4FC
:101402000E94A20C02C112E040E000E02D3211F471
:1014120001E0FCC02B3211F44BE2F8C0203211F48F
:1014220040E2F4C002C0E23039F450E013E020336D
:1014320011F40068EBC003C0E33009F0E7C02033C9
:1014420010F02A3308F007C0AAE05A9F502DE22F6D
:10145200E0535E0FDBC0E22FE33649F40E94A90C91
:10146200E889F989A481AA930E94AF0CCEC0E33720
:1014720041F40E94A90C0E94B50C0E94540B1E2F2D
:101482000AC0E03761F40E94A90C0E94B50C0E94C8
:10149200600B1E2F086002600F7730E034C0E43624
:1014A20011F0E93611F4046002C0E53731F4E2EDDF
:1014B200F4E0EE83FF8315E00CC0E83511F4086018
:1014C20003C0E83709F0A1C0ECEDF4E0EE83FF833E
:1014D20014E002FF14C00E94A90C0E94BF0CAB854D
:1014E200AA233AF4EA85FB850E94DC0CEA87FB8793
:1014F2004DE2403011F01F5F01C00B7F04C00E941B
:10150200A90C0E94BF0C00FD11C0151778F407FF4B
:1015120008C002FF04C00B7F242F115001C020E33A
:1015220001C020E20E94A20C5150EFCF312F01FFE7
:1015320017C03030A1F003FF06C0EE81FF81259174
:10154200EE83FF8305C0AE81BF812D91AE83BF8341
:101552000E94A20C503009F051503150EACF4BC0DA
:1015620020E3EE81FF810E94210DE887F987EE8159
:10157200FF813296EE83FF83E885F985AA85BB85D4
:10158200AE17BF0750F02F5FA885B985EA85FB85A6
:10159200EA1BFB0BEA87FB87EFCF2A3328F003FF16
:1015A20002C0295F01C0295D04FD1AC0213320F465
:1015B200A885B985119709F409C0531710F000FFE7
:1015C20001C013C020E207FF0BC020E3006102FF4D
:1015D20007C00B7F4A930E94AF0C503009F0515064
:1015E2000E94A20C503009F051503150A885B985A3
:1015F200129708F0B5CF00FF08C0503031F05150BB
:10160200E0E2EA930E94AF0CF8CF10E0E0CEAC85A6
:10161200BD850E941D0D0E94520D64960895FF9291
:10162200F82E26970E944D0D0E94C70C309719F490
:10163200EFEFFFEF23C0DE0116960E94D80C8D015A
:101642000E94C70CEE83FF83E0E0E887E987DE01B2
:101652001A960E94D80C0E941D0DFA93EA931A93CF
:101662000A93EDE9F9E0FA93EA93DE011A96A3DE12
:101672009F01AE81BF81E0E0EC93F9010E94540D1D
:101682002A96FF900895BA93AA93B981A8811096D9
:1016920031F0FC81EB816A8161931197E9F7EB816B
:1016A200FC8125960895BA93AA93A991B991EE2740
:1016B200FF276D91662311F03196FBCF0895BA93FF
:1016C200AA93AA27BB27E991F9910590002011F06E
:1016D2001196FBCFFD010895AA93E881F0E0E8534B
:1016E200FB4FA491E9810E94E00C22960895AA93EF
:1016F2001A93E981E73011F0EA3019F4109160028F
:1017020009C0E93019F41091610204C0E830A1F473
:1017120010917002E0916102E03049F0103019F04E
:10172200EFEF188129C0EA81E095188125C01030B9
:1017320019F4E0E0188120C0EA8118811DC0BA9333
:10174200AA93EA81E13021F4E881F981E49114C09D
:10175200E23029F4A881B9810E942A0D0DC0E3303C
:1017620041F4A881B981E0917902F0917A02099558
:1017720003C0A881B981EC9123960895AA93EB81C5
:10178200E03029F4E881A981BA81EC9314C0E230F7
:1017920031F4E881A981BA810E94360D0CC0E33090
:1017A20051F4E981FA81FA93EA93AA81E0917B02EA
:1017B200F0917C02099524960895E0936402F093D7
:1017C20065020895EDE7F2E0FA93EA93E4EEF4E0BD
:1017D200FA93EA930895F0E0662777270E94250D91
:1017E20084E00E94100B28960895EA93E7E0EA93BA
:1017F200ADE7B2E00C943C08E2E8F2E0FA93EA9337
:10180200E4EEF4E0FA93EA9308950E94F00C0E9449
:10181200250D84E00E94100B28960895A7E8B2E0F7
:10182200ED91FD913196FE93EE933197E757FD4F7F
:101832000895EA0FFB1FEE83FF830895EC85EA9378
:10184200EF81F8853196EF83F8873197FA93EA931F
:10185200A0E00C94BF0B0A93A8890C94E603EC85D4
:10186200EA93EF81F8853196EF83F88731970895EF
:1018720066277727DF01CB010C94A00B5A93AA8528
:101882000C94780B0A930395E889EA935A93089586
:101892005E2FEC85EA93AF81B885882799270E944D
:1018A200A00B1E2E08950A930395E889EA93EE850C
:1018B200EA93E985FA853196E987FA873197D8CF95
:1018C200BA93AA93A881B9810E94470D08950E94F4
:1018D2004B0DE0916402F09165020895F8010F5FEB
:1018E2001F4F04900895E0916402F09165023196D1
:1018F200E4910895EA93E0E0EA93E0E0F0E0FA93FD
:10190200EA93A9E00C942205ED83FE830895AE814B
:10191200AF5FAE83A150E0916802AE1708953A938B
:10192200AA850C947F08A985BA85EA0FFB1FE9876F
:10193200FA870895E985FA85EA1BFB0BE987FA879E
:1019420008952A93AD85BE85EF85F8890995089596
:10195200E889F9893497E88BF98B0895AD85BE85BE
:10196200EF85F88909950895A889B98914960E9486
:101972001D0DEE83FF83AE81BF810895A889B989C9
:1019820014960E941D0DEA87FB870895DE011C96BE
:101992000E94D80C0E941D0D0895109639F080ED1A
:1019A20097E00197F1F7A8951197C9F708950024D8
:1019B200AF0DB01D0895F195E195F0400895EE2325
:1019C2000E2EEA2F19F0EE0F0A94E9F70895EE238E
:1019D2000E2EEA2F19F0E6950A94E9F708956F2F73
:1019E200660F660B762F0895FA9FF02DEB9FF00D90
:1019F200EA9FE02DF10D08957A9F702D6B9F700D77
:101A0200F89F700DE99F700D6A9F602D710DFB9F0D
:101A1200600D711DE89F600D711D8827FA9FF02DE2
:101A2200610D781FEB9FF00D611D781FEA9FE02D7D
:101A3200F10D681F781F0895ED91FC91119708959B
:101A42000590F491E02D08957A936A93FA93EA93BC
:101A52000895E199FECFFF93FFB7F894AEBBBFBBE9
:101A6200E09AEDB3FFBFFF910895E19B02C0A895F4
:101A7200FCCF9FB7F894AEBBBFBBE09A8DB3E8171B
:101A820019F0EDBBE29AE19A9FBF089500240A166D
:101A92000B0608955A934A933A932A931A930A93F8
:101AA20008955D814C813B812A81198108810895C5
:00000001FF
