:060000002AC0FECFFDCF77
:10000600FCCFFBCFFACFF9CFF8CFF7CF30C1F5CF82
:10001600F4CFF3CFF2CFF1CFF0CFEFCFEECFEDCFDE
:100026001027E80364000A00010000100001100018
:1000360001000000000001002D4E414E00494E46D1
:100046000000040008003800010070013C000000B8
:10005600F894EE27ECBBF1E0FBBFEBBFE5BF8DE00C
:10006600A2E0BB27ED938A95E9F780E094E0A0E64D
:10007600ED930197E9F7E8E4F0E085919591009713
:1000860061F0A591B59105901590BF01F00105901D
:100096000D920197E1F7FB01F0CFEFE5EDBFE4E04C
:1000A600EEBFC0E6D1E00EC1AA931A9310E0183055
:1000B60088F4E981E07811F4969801C0969A40D1C7
:1000C600E981EE0FE98340D1A981EA2BE983939870
:1000D6001F5FEDCF18812AC088D110E000E00830FC
:1000E60038F42ED1110F30D11E2B93980F5FF7CF16
:1000F600E12F0991199108952DD12FD121960895B7
:1001060029D132D12AD112C025D12ED131D130D127
:100116002FD12ED122D10AC01DD1E3E0EA93A3E06C
:10012600EFDF28D1E981EA93A981EEDF22960895CF
:10013600929A88E795E00197F1F79298979A9398A3
:1001460088EC90E00197F1F71BD1A1EED5DF1ED127
:10015600A2E020D1E5E0EA93A2E0D2DFE6E0EA936E
:10016600A7E0CEDFEDE1EA93A4E0CADF15D1A0E077
:10017600C7DF08950BD1929A84E091E00197F1F7D9
:100186000895FED0ECE1EA93A1E0BADFE2E0EA935B
:10019600A1E0B6DFEAE0EA93A42DBEDF08959298C7
:1001A600E9D0A1E681DF8BE18A95F1F795DFF0E0F2
:1001B600E0936001F09361018FDFA2E6B1E0EFD03A
:1001C600A4E6B1E0ECD0A6E6B1E0F0E0ED93FC9356
:1001D600979A929AD5D00895AA93EA81F0E0E130F1
:1001E600A0E0FA07A9F4DFD049F4DDD011F4C098F5
:1001F60001C0C09ADBD0FBBDEABD22C0D4D011F449
:10020600C09801C0C09AD2D0D4D0FBBDEABD18C0F8
:10021600E230A0E0FA07A1F4C6D049F4C4D011F444
:10022600C69801C0C69AC2D0F9BDE8BD09C0BBD008
:1002360011F4C69801C0C69AB9D0BBD0F9BDE8BDC5
:1002460023960895A9D0A8D0AFEFC6DFE2E0EA93DF
:10025600A3D0AFEF0AC0A0D0E0E0EA93A0E0BCDFF5
:10026600E2E0EA93E0E0EA93A0E0B6DF08950A92BE
:100276001A92FA926A937A938A939A93AA93BA9362
:10028600EA93FA93EFB7EA93E5E8E2BF882021F410
:10029600D9DFF50131965F0192D019F4E1E08E2E97
:1002A600DADF8DD00CF4D7DFE991EFBFF991E99150
:1002B600B991A9919991899179916991F99019903A
:1002C60009901895E7E4E7BBE0E0E8BBE0E2E4BBB1
:1002D600E5BBECECE1BBECEFE2BBE5E0E3BFE0E065
:1002E600E2BFE3EAEFBDEBE0EEBDE0E0EDBDECBD65
:1002F600E7BDE6BDEBBDEABDE9BDE8BDE1E0E9BFAE
:100306007894E1EA4E2EA8EC45D012DF33DF39DFD0
:10031600A8EC40D0A0DF859911C041DFAD9B02C09B
:10032600AD9801C0AD9AA0916601B0916701129790
:1003360014F4E1E08E2EAAE02DD023DFECCFFFCF20
:100346008DE08A95F1F70895939AFADFE0E08499B3
:10035600E1E00895AA9397980895A881A5DE979A53
:100366008BE18A95F1F70895E981E062AE2F9CCE84
:10037600A8819ACE979A8BE18A95F1F79798089576
:10038600E7E0EA93AEE7BCDEA2EEB6CEE0E0EA93A3
:10039600AFE1B6CEB0E018C0E1E0EA930895F0E030
:1003A600ED93FC9399CEE981E0300895E881F0E081
:1003B6000895AFEFB0E012D0EA1BFB0B0895E4E618
:1003C600F0E0EA15FB050895109639F080ED97E008
:1003D6000197F1F7A8951197C9F708951B2EBF2F1E
:1003E600F12D1A2EAE2FE12D08951A930A93089532
:00000001FF
