:020000002BC013
:10000200FECFFDCFFCCFFBCFFACFF9CFF8CFF7CFA2
:1000120031C1F5CFF4CFF3CFF2CFF1CFF0CFEFCFA5
:10002200EECFEDCF1027E80364000A0001000010B4
:1000320000011000010001000000000001002D4E2F
:10004200414E00494E4600000600080038000100FB
:1000520070013E000000F894EE27ECBBF1E0FBBF1C
:10006200EBBFE5BF8DE0A2E0BB27ED938A95E9F7F0
:1000720080E094E0A0E6ED930197E9F7EAE4F0E08E
:1000820085919591009761F0A591B5910590159094
:10009200BF01F00105900D920197E1F7FB01F0CF4E
:1000A200EFE5EDBFE4E0EEBFC0E6D1E010C1AA93F8
:1000B2001A9310E0183088F4E981E07811F49698E8
:1000C20001C0969A42D1E981EE0FE98342D1A9811A
:1000D200EA2BE98393981F5FEDCF18812AC085D15F
:1000E20010E000E0083038F430D1110F32D11E2B6D
:1000F20093980F5FF7CFE12F0991199108952FD1AE
:1001020031D1219608952BD134D12CD112C027D1CF
:1001120030D133D132D131D130D124D10AC01FD123
:10012200E3E0EA93A3E0EFDF2AD1E981EA93A98130
:10013200EEDF22960895929A88E795E00197F1F70B
:100142009298979A939888EC90E00197F1F71DD1D5
:10015200A1EED5DF20D1A2E022D1E5E0EA93A2E030
:10016200D2DFE6E0EA93A7E0CEDFEDE1EA93A4E096
:10017200CADF17D1A0E0C7DF08950DD1929A84E0BB
:1001820091E00197F1F7089500D1ECE1EA93A1E043
:10019200BADFE2E0EA93A1E0B6DFEAE0EA93A42D57
:1001A200BEDF08959298EBD0A1E681DF8BE18A95BC
:1001B200F1F795DFF0E0E0936001F09361018FDFEA
:1001C200A2E6B1E0F1D0A4E6B1E0EED0A6E6B1E05D
:1001D200F0E0ED93FC93979A929AD7D00895AA9360
:1001E200EA81F0E0E130A0E0FA07A9F4E1D049F4B5
:1001F200DFD011F4C09801C0C09ADDD0FBBDEABDCA
:1002020022C0D6D011F4C09801C0C09AD4D0D6D0A2
:10021200FBBDEABD18C0E230A0E0FA07A1F4C8D0E5
:1002220049F4C6D011F4C69801C0C69AC4D0F9BD2B
:10023200E8BD09C0BDD011F4C69801C0C69ABBD0B2
:10024200BDD0F9BDE8BD23960895ABD0AAD0AFEFDB
:10025200C6DFE2E0EA93A5D0AFEF0AC0A2D0E0E0A9
:10026200EA93A0E0BCDFE2E0EA93E0E0EA93A0E0F8
:10027200B6DF08950A921A92FA926A937A938A934F
:100282009A93AA93BA93EA93FA93EFB7EA93E0E0C8
:10029200E2BFE1E0E81521F4D8DFF50131965F0114
:1002A200E8ECF0E0EA15FB0521F4AA24BB24D6DF32
:1002B2008824E991EFBFF991E991B991A9919991B6
:1002C200899179916991F990199009901895E7E4CB
:1002D200E7BBE0E0E8BBE0E2E4BBE5BBECECE1BBA2
:1002E200ECEFE2BBE5E0E3BFE0E0E2BFE3EAEFBD53
:1002F200EBE0EEBDE0E0EDBDECBDE7BDE6BDEBBD84
:10030200EABDE9BDE8BDE1E0E9BF7894E1EA4E2E3D
:10031200A8EC45D010DF31DF37DFA8EC40D09EDFFC
:10032200859911C03FDFAD9B02C0AD9801C0AD9A67
:10033200A0916601B0916701129714F4E1E08E2E4C
:10034200AAE02DD021DFECCFFFCF8DE08A95F1F727
:100352000895939AFADFE0E08499E1E00895AA9380
:1003620097980895A881A3DE979A8BE18A95F1F771
:100372000895E981E062AE2F9ACEA88198CE979A2D
:100382008BE18A95F1F797980895E7E0EA93AEE753
:10039200BADEA2EEB4CEE0E0EA93AFE1B4CEB0E0D2
:1003A20013C0E1E0EA930895F0E0ED93FC9397CE59
:1003B200E981E0300895E881F0E00895AFEFB0E020
:1003C2000DD0EA1BFB0B0895109639F080ED97E0F3
:1003D2000197F1F7A8951197C9F708951B2EBF2F22
:1003E200F12D1A2EAE2FE12D08951A930A93089536
:00000001FF
