:0C00000017C1FECFFDCFFCCFFBCFFACF25
:10000C00F9CFF8CFF7CFF6CFF5CFF4CFF3CFF2CFC0
:10001C00F1CFF0CFEFCFEECFEDCF05072060000092
:10002C000000000000040A040007000700147F14FD
:10003C007F14242A7F2A122313086462364955221E
:10004C00500005030000001C2241000041221C004E
:10005C00082A1C2A0808083E08080050300000082E
:10006C0008080808003030000020100804023E5137
:10007C0049453E00427F400042615149462141457D
:10008C004B311814127F1027454545393C4A4949D4
:10009C003001710905033649494936064949291E7B
:1000AC0000363600000056360000000814224114B9
:1000BC001414141441221408000201510906324987
:1000CC0079413E7E1111117E7F494949363E4141AD
:1000DC0041227F4141221C7F494949417F09090145
:1000EC00013E414151327F0808087F00417F4100A9
:1000FC002040413F017F081422417F404040407F17
:10010C000204027F7F0408107F3E4141413E7F097B
:10011C000909063E4151215E7F0919294646494984
:10012C00493101017F01013F4040403F1F204020E9
:10013C001F7F2018207F63140814630304780403C2
:10014C00615149454300007F4141020408102041A0
:10015C00417F000004020102044040404040000185
:10016C0002040020545454787F48444438384444A2
:10017C004420384444487F3854545418087E0901AC
:10018C0002081454543C7F0804047800447D400059
:10019C002040443D00007F10284400417F40007CFB
:1001AC00041804787C0804047838444444387C14DB
:1001BC00141408081414187C7C08040408485454BB
:1001CC005420043F4440203C4040207C1C204020D4
:1001DC001C3C4030403C44281028440C5050503CAF
:1001EC004464544C44000836410000007F00000079
:1001FC004136080002010204027F4141417F0001A7
:10020C0003070F1F3F7FFF00300001002D4E414EB2
:10021C0000494E46000002006001140201007903FF
:10022C0016020000F894EE27ECBBF1E0FBBFEBBF2D
:10023C00E5BF8DE0A2E0BB27ED938A95E9F780E05E
:10024C0094E0A0E6ED930197E9F7E2E2F2E0859104
:10025C009591009761F0A591B59105901590BF010E
:10026C00F00105900D920197E1F7FB01F0CFEFE55E
:10027C00EDBFE4E0EEBFC0E6D1E00FC06FD500E00B
:10028C0010E00233E0E01E072CF474D473D472D463
:10029C0074D4F7CF0991199108952897E0E0E7BB42
:1002AC00E8BBE4BBE5BBE0E3E1BBE0E0E2BBE3BF02
:1002BC00E2BFE2EAEFBDEBE1EEBDE0E0EDBDECBD8F
:1002CC00E7BDE6BDE7E8F3E1F7BDE6BDE0E0EBBD79
:1002DC00EABDE9BDE8BDE2BDE5BDE4BDE3BDE9BFF6
:1002EC00E5BFEAB9E0E8E8B9E0E0E0BFE6B9EDB9AE
:1002FC00E6BFE6E2F0E0E883F983E0E0EA83EB8333
:10030C00EC83ED83EE81EC7FEE83E37EEC60EE8399
:10031C00EF81E078E263EF83DE015CD0ECE3F1E0A7
:10032C00FBBDEABDEAE0EA93EA93A0E6B1E08CD328
:10033C00A5DFF4CFFFCF089523D4A99818E0FBDFF5
:10034C00E981E07811F0AB9A01C0AB98E981EE0F2E
:10035C00E983F1DFAC9AEFDFAC98115081F7A99AE1
:10036C001881A8C3AA93A898A881E6DFA2C0AA9373
:10037C00A89AA881E1DF9DC003D4E98104D41E2F83
:10038C00E4E5E19FF001DF01EA8101D4E0937F0114
:10039C00F0938001E12F1881CEC3AA93E981E06824
:1003AC00FAD3E981EA93A981E7DFE064F4D382C34D
:1003BC00AA93E981EA93A981F0DFE0917F01F091A2
:1003CC008001EBD3E08176C3AA93EAD3A881A08302
:1003DC00CEDF6FC0EED3C0D4A19AA99AA49AAC98E0
:1003EC00A39AA09AA29AAA98AAE0B0E06CD4AA9A6E
:1003FC00E3D33097E1F0E0D3E681E3701E2FDCD33A
:10040C00E681E695E695E7700E2FD6D3E781EF7778
:10041C003E2FAC81BD8179D4D2D3AC81BD811296F3
:10042C0074D4D2D3AC81BD8114966FD408C010E0C3
:10043C0003E032E3CED3C3D3CCD3C6D3CAD3E09339
:10044C007D01F0937E01A1E28DDFE12FE460A3D367
:10045C00E02FE061A0D3E32FE0689DD3A0E282DF20
:10046C00A1E01FD0E1E0E0936201E0E0E0936301E2
:10047C00E1E0E0936801E0936901E0936A01EFEF3A
:10048C00E0936B01E1E0E0937201E3E7F1E0A4D3C8
:10049C00EFEFEA93A8E0B0E0F6D20DD0E1E063D440
:1004AC005AC0AA93E881E03011F0ECE001C0E8E01A
:1004BC0072D32196089550D430E0E0916301E0307E
:1004CC0009F03FEFE0E0EA93A0E067DF08EF11E00E
:1004DC00F80101501040309719F0A32F75DFF8CFB9
:1004EC00E0E0EA93A0E0C3D23ED442C349D3ED810D
:1004FC00EA93AD815DDF1E2FE981E73011F0E83022
:10050C0031F4EB81EA93AA81D7D2EB8308C0E330B4
:10051C0021F4EB81E095EB8302C0E03021F4EA8119
:10052C00E0951E2302C0E23029F4EA81AB81EA2374
:10053C001E2B0EC0E13029F4EA81AB81EA231E2781
:10054C0007C0E43029F4EA81E095AB81EA2B1E2345
:10055C00A12F3ADF188126960895AA932397FAD3F0
:10056C00A889A43548F4AF85A03330F4AE85A0300B
:10057C0019F0AD85A03009F488C1EE85E887A8890B
:10058C00BB27EE852CD3A535E0E0BE0720F0A8896B
:10059C00E4E5EA1BEE872D85AF85BB27ED851FD3E0
:1005AC00D19720F0AF85E0E3EA1BED87A985A63053
:1005BC0009F054C0EC85E13009F467C1E33039F43B
:1005CC00E0917D01F0917E01309709F45EC10885C0
:1005DC00ED85D9D23E2FE22FE77019F4AD852A179D
:1005EC00D9F0A02FBB27E32FFED2AA85BB85EA0F3B
:1005FC00FB1FFCD2269526952695532F5F935F5FA4
:10060C00E22FAF91EA1740F0102FE12F1150E0309C
:10061C0011F0EFD2FACFF2CFAE850A17F9F0EE85D2
:10062C00AA85BB85B4D2E2D2ED85E77009F03F5FB5
:10063C0020E02F932F5FE32FAF91AE1778F41E8538
:10064C001F931F5FE02FAF91AE1710F4D2D2F8CFEB
:10065C00EE85AE81BF819BD2C9D2EBCFEF85E7701F
:10066C003E2FED85E03009F410C1EA85FB85BED242
:10067C0010E00889303009F059C0AD85A83008F475
:10068C0050C0E985E03011F0E33009F402C0E730E6
:10069C0009F402C0E83009F402C0E93009F402C0E0
:1006AC00EA3019F4B1D279DE04C0E63011F4ACD2E0
:1006BC0063DE1F93ACD2AF91AE1760F5A985A6305F
:1006CC0031F4A8D289D26CD2A08137D222C0E9856C
:1006DC00E93011F450E00CC0EA3011F45FEF08C0BF
:1006EC0099D2A1D25E2FE985E73011F0E83019F4E8
:1006FC009FD25E2F06C0E33011F4509502C0E0305B
:10070C0019F4A52F34DE05C096D2EFEFEA93AD8530
:10071C00EDDECFCFEF85E85FEF87ED85E850ED8715
:10072C00ADC05D8520E0E0E0ED8767C0E32FAD85CF
:10073C00AE0FA93020F42D85E0E0ED8703C0E8E092
:10074C00E31B2E2F3A93A22FADD14E2FE985E63025
:10075C00B9F45AD211DE1F935AD2AF91AE1778F476
:10076C001FD2E081E423AE2FE32FBFD26AD2E32F56
:10077C00A42FBBD270D230D2A52FDFD1ECCF22C0A8
:10078C00E93011F450E003C0EA3089F45FEF50D245
:10079C00AE2FE32FA2D25E2F1F9339D2AF91AE179B
:1007AC0028F449D24A93A0E0A1DEF6CF0BC01F93E8
:1007BC002ED2AF91AE1730F452D2AE2FE32F8DD292
:1007CC005BD2F5CFED85E03009F45FC0AD85A83084
:1007DC0028F4ED85E21B5E2FE0E003C0532FED857E
:1007EC00E850ED8710E0EF85E85FEF87E8E0E31B6A
:1007FC002E2F0889EA85FB85F9D1E52FF0E0E65F1D
:10080C00FD4F4491E985E630B9F4FED1B5DD1F9377
:10081C00FED1AF91AE1778F4C3D1E081E423AE2FB3
:10082C00E22F5BD20ED2E22FA42F57D214D2D4D106
:10083C00A52F83D1ECCF22C0E93011F450E003C0D6
:10084C00EA3089F45FEFF4D1AE2FE22F4ED25E2F57
:10085C001F93DDD1AF91AE1728F4EDD14A93A0E0F0
:10086C0045DEF6CF0BC01F93D2D1AF91AE1730F44B
:10087C00F6D1AE2FE22F39D2FFD1F5CFE885AA857C
:10088C00BB8585D1EA87FB87ECCE6BD26196089548
:10089C00F7D114F09ED10EC1F8D1A435E0E0BE071B
:1008AC001CF0E3E5F0E006C1E881F98103C1E8D171
:1008BC0014F08FD1FFC0E9D1D0971CF0EFE2F0E03B
:1008CC00F9C0E881F981F6C074D12397E1D18F0189
:1008DC00002E012A11F47DD153C0E0D104900F8277
:1008EC00DDD104900E82DAD104900886EB85A885C0
:1008FC00EA1710F46ED144C0D1D15491A885BB270E
:10090C00EE27A50FBE1FEB85F0E0EA17FB0710F0F2
:10091C0060D136C0EE8137D14E2FEE81E77009F0F1
:10092C004F5FEF81E03081F0A985BA85EC93A88503
:10093C00EB85EA1BF0E0DF01EF8155D1DF01E42FFD
:10094C0052D1E00FF11F1CC09801E52FF0E00E0F03
:10095C001F1FA885AF5FA887A150EB85AE1750F479
:10096C00F9012F5F3F4FA491B0E0E42F3CD10E0F63
:10097C001F1FEFCFF901E491A985BA85EC93F8011B
:10098C00F0D12C960895E0E0E0936401A09165010C
:10099C00BB2786D124D1E091690121D188DFE09376
:1009AC0065010895AA93219773D1309709F447C034
:1009BC00AF81AA3009F441C0EF81EA93DE011796AA
:1009CC0083DFAF013097E9F1E0916801AE81EA0F66
:1009DC003E2FA0916401BB27DAD08F010535E0E0F2
:1009EC001E0718F0032F1127CEDFE09164015FD1B1
:1009FC00E885EA9355D1EA93E1E0EA935A934A9356
:100A0C00A7E0ABDDE0916401AE81EA0F50D1E0913B
:100A1C006801EA9345D150D1E0916401EA93A09129
:100A2C0065013ED1EA0FEA933A93E091690144D112
:100A3C00E4E5F0E0E017F10711F4A5DF02C0009344
:100A4C0064018FD128960895B4D01A93EC81EA935F
:100A5C00AC810DD0A981BA81ED91A983BA831E2FE7
:100A6C00E03019F0A12F9EDFF5CF188119C0AA93A1
:100A7C00A981BB270DDFE0936401A881BB2717DF99
:100A8C00E093650117C095D0B981A881109631F01B
:100A9C00FC81EB816A8161931197E9F7EB81FC8111
:100AAC0025960895AA93E881F0E0E65FFD4FA491A6
:100ABC00E98113D12296089563D0E981E73011F0D2
:100ACC00EA3019F41091620109C0E93019F410915F
:100ADC00630104C0E830A1F410917201E09163014C
:100AEC00E03049F0103019F0EFEF188124C0EA81A2
:100AFC00E095188120C0103019F4E0E018811BC07B
:100B0C00EA81188118C055D0EA81E13021F4E881DE
:100B1C00F981E49110C0E23019F4B7D0FAD00BC0CF
:100B2C00E33039F4B2D0E0917B01F0917C0109956E
:100B3C0002C0ABD0EC9123960895AA93EB81E030E0
:100B4C0029F4E881A981BA81EC9312C0E23029F42E
:100B5C00E881A981BA81E9D00BC0E33049F4E9817D
:100B6C00FA813AD0AA81E0917D01F0917E0109953C
:100B7C0024960895A4E6B0E0A6C00F5F1F4F089519
:100B8C00AA931A930895E695E695E6950895F0E0F4
:100B9C00EA0FFB1F0895AE2FE5CBEF57FE4F0895DC
:100BAC00AFE7B1E0ED91FD913196FE93EE93319765
:100BBC00F4CFBA93AA930895EC81FD810895E09344
:100BCC006601F09367010895E0937B01F0937C013B
:100BDC000895E0E0F0E00895FA93EA930895F0E0C8
:100BEC00AE0FBF1F0895F0E088D00895EE83FF8309
:100BFC000895EC85EA93EF81F8853196EF83F887B9
:100C0C003197EADFA0E099CF0A93A88908951F5F76
:100C1C00EE850895EC85EA93EF81F8853196EF83A4
:100C2C00F8873197089566277727DF01CB016BCFC3
:100C3C005A93AA8541CF0A930395E889EA935A936C
:100C4C0008955E2FEC85EA93AF81B88588279927A4
:100C5C005ADF1E2E0895E095E1215E2BDBCF0A931F
:100C6C000395E889EA93EE85EA93E985FA8531964E
:100C7C00E987FA873197D7CFEA934A93AD8536CC7B
:100C8C0098DFA881B98162D00895A881B9810895AF
:100C9C0061D0E0916601F09167010895F8016DCF84
:100CAC00E0916601F09167013196E4910895EA9321
:100CBC00E0916501EA930895EA93E0E0EA9389DF15
:100CCC008BDFA9E04ACC109639F080ED97E00197C4
:100CDC00F1F7A8951197C9F70895EE230E2EEA2F78
:100CEC0019F0EE0F0A94E9F70895EE230E2EEA2F71
:100CFC0019F0E6950A94E9F70895FA9FF02DEB9F09
:100D0C00F00DEA9FE02DF10D0895ED91FC911197F6
:100D1C000895E199FECFFF93FFB7F894AEBBBFBB2C
:100D2C00E09AEDB3FFBFFF910895E19B02C0A89537
:100D3C00FCCF9FB7F894AEBBBFBBE09A8DB3E8175E
:100D4C0019F0EDBBE29AE19A9FBF089500240A16B0
:100D5C000B0608955A934A933A932A931A930A933B
:100D6C0008955D814C813B812A8119810881089508
:00000001FF
