:060000000C9445070C946E
:1000060000000C9400000C9400000C9400000C946A
:1000160000000C9400000C9400000C9400000C945A
:1000260000000C9400000C940B080C9400000C9437
:1000360000000C9400000C9400000C9400000C943A
:1000460000000C9400000C9400000C940000540076
:100056003000FF01011111F1F1111101F1F191913E
:100066009101F1F1F1C101C1F1F1F101F1F11111CA
:10007600F1E101F1F191919101F1F11111F1E1013A
:1000860001C1F131F1C101011111F1F1111101F1BA
:10009600F10101F1F101F1F11111F1E101F1F1913A
:1000A6009191010101FFFF000000000F0F00000009
:1000B6000F0F080808000F0F00070E07000F0F00AC
:1000C6000F0F01010100000F0F080808000F0F01B4
:1000D60003070C080E0F0302030F0E0000000F0F9C
:1000E600000000070F08080F07000F0F0103070C99
:1000F600080F0F080808000000FFFF0000000000BE
:1001060000FC8281A1A2FC000000404040400000AB
:1001160000000000000000000000000000000000D9
:1001260000000000000000000000000000000000C9
:1001360000000080C040C0800000000000000000F9
:1001460000000000000000000000000000FFFF00AB
:100156000000000000FFFFFFFFFFFF00000040441B
:100166004440000000000000000000000000607035
:100176007838181838F8F0E00000C0F0F038181891
:1001860038783020000000070C080C0700000080BB
:10019600E0F0F0783838383870F0E04000000000C1
:1001A60000FFFF0000F0FCFEFFFFFFFFFFFFFFFF69
:1001B600FFFEFCF000000000000000000000000050
:1001C60000000080E0F0783C1E0F070100007FFF72
:1001D600FF86030387FFFE78000000000000000092
:1001E6000000003FFFFFE0C080808080C0E0E0406C
:1001F6000000000000FFFF808081878F9F9FBFBFA8
:10020600BFBFBF9F9F8F87818080808080808080D6
:1002160080808080808083838383838383838383BA
:1002260080808081818383838381818080808080B8
:1002360080808080808080808081818383838383A7
:10024600818180808080808080FF0507206000009B
:100256000000000000040A040007000700147F14D1
:100266007F14242A7F2A12231308646236495522F2
:10027600500005030000001C2241000041221C0022
:10028600082A1C2A0808083E080800503000000802
:1002960008080808003030000020100804023E510B
:1002A60049453E00427F4000426151494621414551
:1002B6004B311814127F1027454545393C4A4949A8
:1002C6003001710905033649494936064949291E4F
:1002D600003636000000563600000008142241148D
:1002E600141414144122140800020151090632495B
:1002F60079413E7E1111117E7F494949363E414181
:1003060041227F4141221C7F494949417F09090118
:10031600013E414151327F0808087F00417F41007C
:100326002040413F017F081422417F404040407FEA
:100336000204027F7F0408107F3E4141413E7F094F
:100346000909063E4151215E7F0919294646494958
:10035600493101017F01013F4040403F1F204020BD
:100366001F7F2018207F6314081463030478040396
:10037600615149454300007F414102040810204174
:10038600417F000004020102044040404040000159
:1003960002040020545454787F4844443838444476
:1003A6004420384444487F3854545418087E090180
:1003B60002081454543C7F0804047800447D40002D
:1003C6002040443D00007F10284400417F40007CCF
:1003D600041804787C0804047838444444387C14AF
:1003E600141408081414187C7C080404084854548F
:1003F6005420043F4440203C4040207C1C204020A8
:100406001C3C4030403C44281028440C5050503C82
:100416004464544C44000836410000007F0000004C
:100426004136080002010204027F4141417F000E6D
:1004360020600A0A0A0A0A0A0A0A0A0A0A0A0A0AAA
:100446000A0A0A0A0A0A0A0A0A0A0A0A0A0A0A0A06
:100456000A0A0A0A0A0A0A0A0A0A0A0A0A0A090AF7
:100466000A0A0A0A0A0A0A0A0A0A0A0A0A0A0A0AE6
:100476000A0A0A0A0A0A0A0A0A0A0A0A0A0A0A0AD6
:100486000A0A0A0A0A0A0A0A090A0A0A0A0A0A0AC7
:100496000A0A000000000000000000000000000042
:1004A6000000000000000000000000000000000046
:1004B6000000000000000000000000000000000036
:1004C6000000000000000000000000000000000026
:1004D6000000000000000000000000000000000016
:1004E6000000000000000000000000000000000006
:1004F60000000000000000000000000000000000F6
:1005060000000000000000000000000000000000E5
:1005160000000000000000000000000000000000D5
:1005260000000000000000000000000000000000C5
:1005360000000000000000000000000000000000B5
:1005460000000000000000000000000000000000A5
:100556000000000000000000000000000000000095
:100566000000000000000000000000000000000085
:100576000000000000000000000000000000000075
:100586000000000000000000000000000000000065
:100596000000000000000000000000000000000055
:1005A6000000000000000000000000000000000045
:1005B6000000000000000000000000000000000035
:1005C6000000000000000000000000000000000025
:1005D600000000FCFE03030303FEFC00000F1F30B7
:1005E6003030301F0F0000180C06FFFF000000001F
:1005F600003030303F3F30303000000C0E030383B4
:10060600C37E3C0000383C36333130303000000CBD
:100616000EC3C3C3C3FE3C00000C1C303030301F79
:100626000F0000C0E0B0988C86FFFF80000101013A
:100636000101013F3F0100FFFFC3C3C3C3830300A2
:10064600003030303030301F0F0000FCFEC3C3C313
:10065600C38E0C00000F1F303030301F0F00000318
:10066600030303C3F33F0F00000000003E3F0300F7
:100676000000003CFEC3C3C3C3FE3C00000F1F3096
:100686003030301F0F00007CFEC3C3C3C3FEFC0026
:10069600000C1C303030301F0F00000000183C3CAE
:1006A60018000000000000060F0F06000000000002
:1006B6000000000000000000000000000000000034
:1006C6000000000000000000000000000000000024
:1006D6000000000000000000000000000000000014
:1006E6000000000000000000000000000000000004
:1006F60000000000000000000000000000000000F4
:1007060000000000000000000000000000000000E3
:1007160000000000000000000000000000000000D3
:10072600000000000000FCFE838383838383FEFCBD
:100736003F3F0101010101013F3FFFFFC3C3C3C3A7
:10074600C3C3FE3C3F3F3030303030301F0FF8FC23
:100756000603030303030E0C070F18303030303046
:100766001C0CFFFF030303030306FCF83F3F303076
:10077600303030180F07FFFFC3C3C3C3C3C3C3035F
:100786003F3F3030303030303030FFFFC3C3C3C35B
:10079600C3C303033F3F0000000000000000F8FC55
:1007A6000603030383838E8C070F183030303131F4
:1007B6001F0FFFFFC0C0C0C0C0C0FFFF3F3F00000B
:1007C600000000003F3F00000303FFFF030300009B
:1007D600000030303F3F303000000000000303FFD0
:1007E600FF0303000C1C3030301F0F000000FFFF1A
:1007F600C0E030180C0603013F3F000103060C1849
:100806003020FFFF000000000000003F3F30303086
:1008160030303030FFFF1C70C0C0701CFFFF3F3F00
:100826000000010100003F3FFFFF0E38E08000009E
:10083600FFFF3F3F000000030E183F3FF8FC060392
:1008460003030306FCF8070F1830303030180F0783
:10085600FFFF8383838383C7FE7C3F3F0101010142
:1008660001010000F8FC060303030306FCF8070F6A
:10087600183030343C183F27FFFFC3C3C3C3E77E9D
:100886003C003F3F0103070E1C3830203C7EC3C3AB
:10089600C3C3C3C38E0C0C1C3030303030301F0F36
:1008A60003030303FFFF03030303000000003F3FAE
:1008B60000000000FFFF000000000000FFFF0F1F08
:1008C6003030303030301F0FFFFF000000000000D6
:1008D600FFFF03070C183030180C0703FFFF0080DA
:1008E600E0E08000FFFF3F3F0E030000030E3F3FA6
:1008F6000F1FB0E0C0C0E0B01F0F3E3F0301000075
:1009060001033F3E1F3F60C08080C0603F1F000064
:1009160000003F3F0000000003030383C363331B53
:100926000F073C3E333130303030303000000000AD
:1009360000000000000000000000000000000000B1
:1009460000000000000000000000000000000000A1
:100956000000000000000000000000000000000091
:100966000000000000000000000000000000000081
:100B460000000000000000002060E0E0E0E0E0605F
:100B5600200000000103010000000000000000006A
:100B6600000000000000000000000000000000007F
:100B7600000000000000000000000000000000006F
:100B8600000000000000000000000000000000005F
:100B9600000000000000000000000000000000004F
:100BA600000000000000000000000000000000003F
:100BB600000000000000000000000000000000002F
:100BC600000000000000000000000000000000001F
:100BD600000000000000000000000000000000000F
:100BE60000000000000000000000000000000000FF
:100BF60000000000000000000000000000000000EF
:100C060000000000000000000000000000000005D9
:100C16002060010404040404040404040404040419
:100C26000403040304040404040404040304040481
:100C3600040404040404040404040404040404056D
:100C4600040404040404030404050505040404045C
:100C5600040404040404040404040404040404044E
:100C6600040404040404040404040404040404043E
:100C76000404000000000000000000000000000066
:100C8600000000000000000000000000000000005E
:100C9600000000000000000000000000000000004E
:100CA60000000000000000000000001806010E1100
:100CB600110E121F10191515121115150A0C0A1FFF
:100CC60008171515090E151508011905030A151536
:100CD6000A0215150E000A0000100A00040A110087
:100CE6000A0A0A0A00110A0400011502000000009F
:100CF6001E05051E1F15150A0E11110A1F11110ECC
:100D06001F1515111F0505010E11190A1F04041FD1
:100D160000001F0008110F011F040A111F101010F8
:100D26001F0204021F1F02041F0E11110E1F0505CC
:100D3600020E11191E1F050D1212151509011F01AC
:100D46000F10100F071818071F0804081F110A04B0
:100D56000A1101021C0201111915130000000000FE
:100D6600000000000000000000000000000000007D
:100D7600000000000000000000000000000000006D
:100D8600000000000000000000000000000000005D
:100D9600000000000000000000000000000000004D
:100DA600000000000000000000000000000000003D
:100DB600000000000000000000000000000000002D
:100DC600000000000000000000000000000000001D
:100DD600000000000000000000000000000000000D
:100DE60000000000000000000000000000000000FD
:100DF6001027E80364000A0001000010000110003B
:100E06000100000103070F1F3F7FFF00A4B1484503
:100E1600414C5448204341524500544850542059AF
:100E2600454E20484F4100524F4F4D3A0034005234
:100E36004F424F5400434F4D450001002D4E414E49
:100E460000494E46000002000400120E0C0060022B
:100E5600140E0D006C02200E060079022D0E020003
:100E66007F02330E0C008102140E0D008D02200E3F
:100E760006009A02350E0500A0023B0E0100E404AE
:100E8600400E0000F894EE27ECBBF1E0F5BFE5BF9D
:100E96008DE0A2E0BB27ED938A95E9F780E098E024
:100EA600A0E6ED930197E9F7ECE4FEE085919591D4
:100EB600009761F0A591B59105901590BF01F001DD
:100EC60005900D920197E1F7FB01F0CFEFE5EDBF3D
:100ED600E8E0EEBFC0E6D2E00C9428089798969A10
:100EE60095988BE18A95F1F7E7E0EA93AEE750D063
:100EF600A2EE64D0E0E0EA93AFE124D0A2E0B0E055
:100F06000E94FC0CE7E0EA93AEE71CD0EDE1EA9321
:100F1600A4E018D0E5E0EA93A2E014D00895AA93DD
:100F26001A9310E0183050F4E981E07811F494989F
:100F360001C0949A0E947E0C1F5FF4CFE98118814C
:100F46000C94160C0E94900CEADFBE2EA881E7DFF7
:100F56000E94960CEB2D0C94160CAA931A9310E093
:100F6600183050F4E981E07811F4949801C0949A0D
:100F76000E947E0C1F5FF4CFE98118810C94160C39
:100F8600979A88E795E00197F1F79798969A0895CA
:100F96000E94900C0E949B0C0E94960C0C94160CBE
:100FA6000E94900C0E949B0CA8810E949B0CA88119
:100FB6000E949B0C0E94960C0C94160CAA93969871
:100FC600A881CBDF0E94960C0C943D09AA939698B3
:100FD600E3E0EA93A3E0DCDF0E94960C9698EAE051
:100FE600EA93A981DDDFE0E1EA93A981D9DF0C94D8
:100FF6003D09ECE1EA93AFE0CBDFA42DE7DFE2E0C9
:10100600EA93A1E0C5DFE1E0EA93A1E0C1DF08953C
:101016006A937A93AA93BA93EA93FA93EFB7EA9309
:10102600ECE9E2BFA6EEB2E00E94420DEF5FFF4F91
:101036006F4F7F4F0E94470DE991EFBFF991E991FC
:10104600B991A9917991699118952897BC9AC498F4
:10105600D69ADE9AE0EFE1BBEFEFE2BBE2E0E3BF58
:10106600ECE9E2BFE1E0E9BFE0E5F2E0E883F9831D
:10107600EE81EC7FE260EE83E37EEC60EE83EF814F
:10108600E078EC63EF83DE010E94B608789478DF9F
:1010960025DFAFDFE0E0EA93EA93E4E5F0E0FA93D8
:1010A600EA93A0E00E94C30BF5CFFFCF0895AA9361
:1010B6001A93AD9818E0FADFE981E07811F0D99A31
:1010C60001C0D998E981EE0FE983F0DFDB9AEEDF04
:1010D600DB98115081F7AD9A18810C94160CAA93DF
:1010E600D898A881E4DFC6C0AA93D89AA881DFDF82
:1010F600C1C0AA931A93E981E695E695E6951E2F57
:10110600E4E5E19FF001DF01EA81F0E0EA0FFB1F71
:10111600E093EA02F093EB02E12F18810C945D0C48
:10112600AA93E981E068AE2FDADFE981EA93A98123
:10113600E0DFE064AE2FD3DF0C94160CAA93E981AE
:10114600EA93A981EDDFE091EA02F091EB02E45126
:10115600FD4FE0810C94160CAA930E94A00CA88166
:10116600A083C2DF87C0BA93AA930E946F0DA59A87
:10117600AD9AD39ADB98D19AD09AA79AAF98AAE05B
:10118600B0E00E94FC0CAF9AEC81FD81309721F112
:10119600E681E3701E2FEC81FD81E681E695E695FA
:1011A600E7700E2FEC81FD81E781EF773E2FAC8152
:1011B600BD810E943E0DE093A902F093AA02129609
:1011C6000E943E0DE093BE02F093BF02AC81BD814A
:1011D60014960E943E0D0DC010E003E032E3E0E0FD
:1011E600F0E0E093A902F093AA02E093BE02F09326
:1011F600BF02E093C002F093C102A1E270DFE12FCB
:10120600E460AE2F6CDFE02FE061AE2F68DFE32FE6
:10121600E068AE2F64DFA0E262DFA1E022D0E1E069
:10122600E093A502E0E0E093A602E1E0E093AB02E2
:10123600E093AC02E093AD02EFEFE093AE02E1E0A3
:10124600E093B502E6EBF2E0FA93EA93EFEFEA9366
:10125600A8E0B0E00E94FD0B0FD0E1E00E94760D01
:1012660060C0AA93E881E03011F0ECE001C0E8E04C
:10127600AE2F35DF219608950E946F0D30E0E09184
:10128600A602E03009F03FEFE0E0EA93A0E048DF95
:1012960008EF11E0F80101501040309719F0A32F24
:1012A6005BDFF8CFE0E0EA93A0E098D20E94760DEB
:1012B6000C947C0CAA931A93ED81EA93AD813EDFE0
:1012C6001E2FE981E73011F0E83039F4EB81EA931B
:1012D600AA810E94180CEB8308C0E33021F4EB814D
:1012E600E095EB8302C0E03021F4EA81E0951E230D
:1012F60002C0E23029F4EA81AB81EA231E2B0EC03C
:10130600E13029F4EA81AB81EA231E2707C0E430E5
:1013160029F4EA81E095AB81EA2B1E23A12F1CDF7D
:10132600188126960895AA9323970E946D0DA88981
:10133600A43548F4AF85A03330F4AE85A03019F05B
:10134600AD85A03009F4CCC1EE85E887A889BB2716
:10135600EE85F0E0AE0FBF1FA535E0E0BE0720F03A
:10136600A889E4E5EA1BEE872D85AF85BB27ED85C9
:10137600F0E0AE0FBF1FD19720F0AF85E0E3EA1B88
:10138600ED87A985A63009F05BC0EC85E13009F44C
:10139600A7C1E33039F4E091C002F091C102309761
:1013A60009F49EC10885ED85E695E695E6953E2FFE
:1013B600E22FE77019F4AD852A17E9F0A02FBB27B5
:1013C600E32FF0E00E94160DAA85BB850E94AB0CA8
:1013D600269526952695532F5F935F5FE22FAF9153
:1013E600EA1748F0102FE12F1150E03019F00E9453
:1013F600B00CF9CFF1CFAE850A1711F1EE85AA85AB
:10140600BB85F0E00E94AB0CED85E77009F03F5F0D
:1014160020E02F932F5FE32FAF91AE1788F41E8540
:101426001F931F5FE02FAF91AE1718F40E94B00C08
:10143600F7CFEE85AE81BF81F0E00E94AB0CE9CF1D
:10144600EF85E7703E2FED85E03009F449C1EA8566
:10145600FB85EE83FF8310E00889303009F063C016
:10146600AD85A83008F45AC0E985E03011F0E330C4
:1014760009F402C0E73009F402C0E83009F402C0FA
:10148600E93009F402C0EA3021F40A93A88948DE5B
:1014960004C0E63011F40E94BD0C1F931F5FEE8559
:1014A600AF91AE17A0F5A985A63051F40E94C10CE4
:1014B600FA93EA930E94A00CA0810E945F0C26C0BA
:1014C600E985E93011F450E00EC0EA3011F45FEF1F
:1014D6000AC00E94C10C0E94CA0C5E2FE985E73043
:1014E60011F0E83021F40E94D00C5E2F06C0E330E4
:1014F60011F4509502C0E03019F4A52FF5DD06C0B1
:101506000E94D40CEFEFEA93AD85D4DEC6CFEF850B
:10151600E85FEF87ED85E850ED87D9C05D8520E06F
:10152600E0E0ED877EC0E32FAD85AE0FA93020F455
:101536002D85E0E0ED8703C0E8E0E31B2E2F3A930C
:10154600A22F0E940D0C4E2FE985E63011F50E9460
:10155600BD0C1F931F5FEE85AF91AE17C8F40E94B6
:10156600A00CE081E423AE2FE32F0E940E0D0E9413
:10157600DA0CE32FA42F0E940E0DE095E1215E2BDD
:101586000E94C10CFA93EA93A52F0E945F0CE1CF4B
:101596002CC0E93011F450E003C0EA30A9F45FEF43
:1015A6000E94D00CAE2FE32F0E94060D5E2F1F93D4
:1015B6001F5FEE85AF91AE1730F40E94D40C4A93AC
:1015C600A0E078DEF4CF11C01F931F5FEE85AF91C8
:1015D600AE1758F40E94E50CAE2FE32F0E94060DBD
:1015E600EA934A93AD8566DEEFCFED85E03009F4E8
:1015F60077C0AD85A83028F4ED85E21B5E2FE0E0CC
:1016060003C0532FED85E850ED8710E0EF85E85FC6
:10161600EF87E8E0E31B2E2F0889EA85FB85EE833A
:10162600FF83E52FF0E0E85FF14F4491E985E6306E
:1016360011F50E94BD0C1F931F5FEE85AF91AE178B
:10164600C8F40E94A00CE081E423AE2FE22F0E9492
:10165600060D0E94DA0CE22FA42F0E94060DE095DB
:10166600E1215E2B0E94C10CFA93EA93A52F0E94FA
:101676005F0CE1CF2CC0E93011F450E003C0EA3032
:10168600A9F45FEF0E94D00CAE2FE22F0E940E0D40
:101696005E2F1F931F5FEE85AF91AE1730F40E9449
:1016A600D40C4A93A0E006DEF4CF11C01F931F5F4F
:1016B600EE85AF91AE1758F40E94E50CAE2FE22FDF
:1016C6000E940E0DEA934A93AD85F4DDEFCFE885CF
:1016D600AA85BB85F0E0EA0FFB1FEA87FB87B3CE3E
:1016E6000E94740D619608950E94F20C1CF0E0E0D1
:1016F600F0E099C0A881B981A435E0E0BE071CF0EE
:10170600E3E5F0E090C0E881F9818DC00E94F20C1B
:101716001CF0E0E0F0E087C0A881B981D0971CF00A
:10172600EFE2F0E080C0E881F9817DC0AA931A93C8
:10173600AA81A43518F4A981A03330F0E0E0F0E0E6
:1017460060E070E01881B6C0E981E7701E2FE9817C
:10175600E695E695E695E983103011F0EF5FE983AB
:10176600AA81BB2788279927E981FF27662777273C
:101776000E941E0DEC5FFF4F6F4F7F4F18819AC07E
:10178600AA930E946F0DAC81A53000F5ED81FE8114
:1017960005910E94F90C15910E94F90C25910E9461
:1017A600F90C3591ED83FE83E885EA93E885EA93A3
:1017B6000A932A93E1E0EA93EA85FB85FA93EA9392
:1017C600AB85B1DD0A93A22FB1DF04C0E0E0F0E003
:1017D60060E070E00E94760D29960895AA93A9818B
:1017E600BB2782DFE093A702A881BB278FDFE093A8
:1017F600A80219C0BA93AA93B981A881109631F0AC
:10180600FC81EB816A8161931197E9F7EB81FC8199
:1018160025960895AA93E881F0E0E85FF14FA49138
:10182600E9810E94060D22960895AA931A93E981EA
:10183600E73011F0EA3019F41091A50209C0E93039
:1018460019F41091A60204C0E830A1F41091B50273
:10185600E091A602E03049F0103019F0EFEF188160
:1018660029C0EA81E095188125C0103019F4E0E01E
:10187600188120C0EA8118811DC0BA93AA93EA8113
:10188600E13021F4E881F981E49114C0E23029F4D1
:10189600A881B9810E944C0D0DC0E33041F4A881A6
:1018A600B981E091BE02F091BF02099503C0A881FB
:1018B600B981EC9123960895AA93EB81E03029F43F
:1018C600E881A981BA81EC9314C0E23031F4E88151
:1018D600A981BA810E94580D0CC0E33051F4E98108
:1018E600FA81FA93EA93AA81E091C002F091C102CB
:1018F6000995249608958DE08A95F1F7E981EE0F12
:10190600E983959A8DE08A95F1F7E0E08399E1E025
:10191600A981EA2BE98395980895AA939698E98177
:10192600E062AE2F0895969A8BE18A95F1F70895B5
:101936000E94B007A8810C94B007AAEEB2E0ED9120
:10194600FD913196FE93EE933197E451FD4F089544
:10195600EA0FFB1FEE83FF830895EC85EA93EF8180
:10196600F8853196EF83F8873197FA93EA93A0E0EA
:101976000C945F0C0A93A8890C947C08EC85EA9376
:10198600EF81F8853196EF83F887319708956627BA
:101996007727DF01CB010C94400C5A93AA850C944F
:1019A600180C0A930395E889EA935A9308955E2FD3
:1019B600EC85EA93AF81B885882799270E94400C69
:1019C6001E2E08950A930395E889EA93EE85EA9315
:1019D600E985FA853196E987FA873197D8CFBA93A0
:1019E600AA93A881B9810E94690D0895ED83FE83AB
:1019F6000895109639F080ED97E00197F1F7A895D4
:101A06001197C9F70895EE230E2EEA2F19F0EE0F5F
:101A16000A94E9F70895EE230E2EEA2F19F0E695BB
:101A26000A94E9F70895FA9FF02DEB9FF00DEA9FCF
:101A3600E02DF10D08957A9F702D6B9F700DF89F24
:101A4600700DE99F700D6A9F602D710DFB9F600DF3
:101A5600711DE89F600D711D8827FA9FF02D610D9D
:101A6600781FEB9FF00D611D781FEA9FE02DF10DA9
:101A7600681F781F0895ED91FC9111970895ED91D7
:101A8600FD916D917D9108957E936E93FE93EE93F5
:101A96000895E199FECFFF93FFB7F894AEBBBFBBA5
:101AA600E09AEDB3FFBFFF910895E19B02C0A895B0
:101AB600FCCF9FB7F894AEBBBFBBE09A8DB3E817D7
:101AC60019F0EDBBE29AE19A9FBF089500240A1629
:101AD6000B0608955A934A933A932A931A930A93B4
:101AE60008955D814C813B812A8119810881089581
:00000001FF
