:020000000C945E
:1000020039010C9400000C9400000C9400000C9434
:1000120000000C9400000C9400000C9400000C945E
:1000220000000C9400000C9400000C9400000C944E
:1000320000000C9400000C9400000C9400000C943E
:1000420000000C9400000C9400000C9400000C942E
:1000520000000507206000000000000000040A0400
:100062000007000700147F147F14242A7F2A12231A
:100072001308646236495522500005030000001C33
:100082002241000041221C00082A1C2A0808083EBE
:100092000808005030000008080808080030300046
:1000A2000020100804023E5149453E00427F4000B4
:1000B20042615149462141454B311814127F1027A4
:1000C200454545393C4A49493001710905033649DC
:1000D200494936064949291E00363600000056367F
:1000E20000000008142241141414141441221408AC
:1000F200000201510906324979413E7E1111117EF9
:100102007F494949363E414141227F4141221C7F7C
:10011200494949417F090901013E414151327F0864
:1001220008087F00417F41002040413F017F0814C1
:1001320022417F404040407F0204027F7F0408103A
:100142007F3E4141413E7F090909063E4151215E00
:100152007F09192946464949493101017F01013F79
:100162004040403F1F2040201F7F2018207F631403
:100172000814630304780403615149454300007F76
:100182004141020408102041417F000004020102A3
:10019200044040404040000102040020545454787E
:1001A2007F484444383844444420384444487F38E3
:1001B20054545418087E090102081454543C7F0810
:1001C20004047800447D40002040443D00007F103C
:1001D200284400417F40007C041804787C08040411
:1001E2007838444444387C14141408081414187CD5
:1001F2007C080404084854545420043F4440203CE2
:100202004040207C1C2040201C3C4030403C442884
:100212001028440C5050503C4464544C440008365E
:10022200410000007F000000413608000201020484
:10023200027F4141417F000103070F1F3F7FFF0003
:10024200456E7669726F6E6D656E74616C20766153
:100252006C756573000001002D4E414E00494E46FB
:10026200000015006002420201008C0458020000E6
:10027200F894EE27ECBBF1E0F5BFE5BF8DE0A2E01C
:10028200BB27ED938A95E9F780E098E0A0E6ED932D
:100292000197E9F7E4E6F2E085919591009761F024
:1002A200A591B59105901590BF01F00105900D92B1
:1002B2000197E1F7FB01F0CFEFE5EDBFE8E0EEBF1C
:1002C200C0E6D2E00C946E01BA93AA931A93E12F7E
:1002D20018810C945D060C9416062897E0E0EABBA0
:1002E200EBBBE7BBE8BBE4BBE5BBE1BBE2BBE3BF07
:1002F200E2BFECBFEFBDEEBDEDBDECBDE7BDE6BDBF
:10030200EBBDEABDE9BDE8BDE2BDE5BDE4BDE3BDCF
:10031200E9BFE5BFE4BFEAB9E0E8E8B9E0E2E7B97E
:10032200E3E8E6B9E0E0E0BFEDB9E6BFE4E5F0E01E
:10033200E883F983E5E6F1E0EA83FB83ECE6F1E0AA
:10034200EC83FD83EE81EC7FEE83E37EEC60EE8353
:10035200EF81E078E263EF83DE0166D0E0E0EA93CA
:10036200EA93A0E6B2E00E94DD05F8CFFFCF089540
:10037200AA931A93A99818E0FADFE981E07811F0BC
:10038200AB9A01C0AB98E981EE0FE983F0DFAC9A3A
:10039200EEDFAC98115081F7A99A18810C941606D9
:1003A200AA93AA98A881E4DFC6C0AA93AA9AA881B0
:1003B200DFDFC1C0AA931A93E981E695E695E69537
:1003C2001E2FE4E5E19FF001DF01EA81F0E0EA0F90
:1003D200FB1FE0939202F0939302E12F18810C9499
:1003E2005D06AA93E981E068AE2FDADFE981EA933C
:1003F200A981E0DFE064AE2FD3DF0C941606AA9346
:10040200E981EA93A981EDDFE0919202F0919302F2
:10041200EC56FD4FE0810C941606AA930E947E06CC
:10042200A881A083C2DF87C0BA93AA930E943D0726
:10043200A19AA99AA49AAC98A39AA29AA09AA898C7
:10044200AAE0B0E00E94F406A89AEC81FD81309700
:1004520021F1E681E3701E2FEC81FD81E681E695B4
:10046200E695E7700E2FEC81FD81E781EF773E2F55
:10047200AC81BD810E941607E0937902F0937A0263
:1004820012960E941607E0938E02F0938F02AC81BF
:10049200BD8114960E9416070DC010E003E032E3FE
:1004A200E0E0F0E0E0937902F0937A02E0938E02CA
:1004B200F0938F02E0939002F0939102A1E270DF39
:1004C200E12FE460AE2F6CDFE02FE061AE2F68DF3A
:1004D200E32FE068AE2F64DFA0E262DFA1E022D06A
:1004E200E1E0E0937502E0E0E0937602E1E0E09380
:1004F2007B02E0937C02E0937D02EFEFE0937E02C9
:10050200E1E0E0938502E6E8F2E0FA93EA93EFEFA6
:10051200EA93A8E0B0E00E94FD050FD0E1E00E945E
:10052200440760C0AA93E881E03011F0ECE001C01A
:10053200E8E0AE2F35DF219608950E943D0730E0B6
:10054200E0917602E03009F03FEFE0E0EA93A0E0CC
:1005520048DF08EF11E0F80101501040309719F020
:10056200A32F5BDFF8CFE0E0EA93A0E039D30E944B
:1005720044070C947C06AA931A93ED81EA93AD8109
:100582003EDF1E2FE981E73011F0E83039F4EB81CC
:10059200EA93AA810E941806EB8308C0E33021F493
:1005A200EB81E095EB8302C0E03021F4EA81E09533
:1005B2001E2302C0E23029F4EA81AB81EA231E2B1A
:1005C2000EC0E13029F4EA81AB81EA231E2707C07D
:1005D200E43029F4EA81E095AB81EA2B1E23A12FB6
:1005E2001CDF188126960895AA9323970E943B0741
:1005F200A889A43548F4AF85A03330F4AE85A03085
:1006020019F0AD85A03009F4CCC1EE85E887A88940
:10061200BB27EE85F0E0AE0FBF1FA535E0E0BE07B9
:1006220020F0A889E4E5EA1BEE872D85AF85BB277C
:10063200ED85F0E0AE0FBF1FD19720F0AF85E0E36C
:10064200EA1BED87A985A63009F05BC0EC85E13095
:1006520009F4A7C1E33039F4E0919002F0919102DC
:10066200309709F49EC10885ED85E695E695E695F5
:100672003E2FE22FE77019F4AD852A17E9F0A02F7B
:10068200BB27E32FF0E00E940E07AA85BB850E94DC
:100692008906269526952695532F5F935F5FE22F55
:1006A200AF91EA1748F0102FE12F1150E03019F006
:1006B2000E948E06F9CFF1CFAE850A1711F1EE85B1
:1006C200AA85BB85F0E00E948906ED85E77009F0F6
:1006D2003F5F20E02F932F5FE32FAF91AE1788F497
:1006E2001E851F931F5FE02FAF91AE1718F40E9473
:1006F2008E06F7CFEE85AE81BF81F0E00E948906BB
:10070200E9CFEF85E7703E2FED85E03009F449C16E
:10071200EA85FB85EE83FF8310E00889303009F01B
:1007220063C0AD85A83008F45AC0E985E03011F005
:10073200E33009F402C0E73009F402C0E83009F4FA
:1007420002C0E93009F402C0EA3021F40A93A88910
:1007520048DE04C0E63011F40E949B061F931F5F1F
:10076200EE85AF91AE17A0F5A985A63051F40E948F
:100772009F06FA93EA930E947E06A0810E945F067A
:1007820026C0E985E93011F450E00EC0EA3011F4D8
:100792005FEF0AC00E949F060E94A8065E2FE985AD
:1007A200E73011F0E83021F40E94AE065E2F06C059
:1007B200E33011F4509502C0E03019F4A52FF5DDB5
:1007C20006C00E94B206EFEFEA93AD85D4DEC6CF33
:1007D200EF85E85FEF87ED85E850ED87D9C05D854D
:1007E20020E0E0E0ED877EC0E32FAD85AE0FA930BB
:1007F20020F42D85E0E0ED8703C0E8E0E31B2E2F17
:100802003A93A22F0E940D064E2FE985E63011F58C
:100812000E949B061F931F5FEE85AF91AE17C8F42F
:100822000E947E06E081E423AE2FE32F0E9406079A
:100832000E94B806E32FA42F0E940607E095E1214B
:100842005E2B0E949F06FA93EA93A52F0E945F06F1
:10085200E1CF2CC0E93011F450E003C0EA30A9F432
:100862005FEF0E94AE06AE2FE32F0E94FE065E2FC0
:100872001F931F5FEE85AF91AE1730F40E94B20650
:100882004A93A0E078DEF4CF11C01F931F5FEE857C
:10089200AF91AE1758F40E94C306AE2FE32F0E9409
:1008A200FE06EA934A93AD8566DEEFCFED85E03032
:1008B20009F477C0AD85A83028F4ED85E21B5E2FE0
:1008C200E0E003C0532FED85E850ED8710E0EF859F
:1008D200E85FEF87E8E0E31B2E2F0889EA85FB85B6
:1008E200EE83FF83E52FF0E0E85CFD4F4491E9855C
:1008F200E63011F50E949B061F931F5FEE85AF91B4
:10090200AE17C8F40E947E06E081E423AE2FE22FE8
:100912000E94FE060E94B806E22FA42F0E94FE0645
:10092200E095E1215E2B0E949F06FA93EA93A52FA0
:100932000E945F06E1CF2CC0E93011F450E003C001
:10094200EA30A9F45FEF0E94AE06AE2FE22F0E94BA
:1009520006075E2F1F931F5FEE85AF91AE1730F42F
:100962000E94B2064A93A0E006DEF4CF11C01F93A4
:100972001F5FEE85AF91AE1758F40E94C306AE2FEB
:10098200E22F0E940607EA934A93AD85F4DDEFCF8A
:10099200E885AA85BB85F0E0EA0FFB1FEA87FB87A3
:1009A200B3CE0E944207619608950E94D0061CF0C1
:1009B200E0E0F0E03AC1A881B981A435E0E0BE07E9
:1009C2001CF0E3E5F0E031C1E881F9812EC10E941B
:1009D200D0061CF0E0E0F0E028C1A881B981D097F0
:1009E2001CF0EFE2F0E021C1E881F9811EC1BA9367
:1009F200AA9323970E94D7068F01002E012A19F489
:100A0200E0E0F0E05FC00E94DE060F820E94DE0698
:100A12000E820E94DE060886EB85A885EA1718F486
:100A2200E0E0F0E04FC0F8010F5F1F4F5491A8853E
:100A3200BB27EE27A50FBE1FEB85F0E0EA17FB07E9
:100A420018F0E0E0F0E03EC0EE81E695E695E6952E
:100A52004E2FEE81E77009F04F5FEF81E030A1F099
:100A6200A985BA85EC93A885EB85EA1BF0E0DF0146
:100A7200EF81F0E00E940E07DF01E42FF0E00E9418
:100A82000E07E00FF11F1EC09801E52FF0E00E0FD8
:100A92001F1FA885AF5FA887A150EB85AE1760F432
:100AA200F9012F5F3F4FA491B0E0E42FF0E00E94E4
:100AB2000E070E0F1F1FEDCFF901E491A985BA852C
:100AC200EC93F8010E9442072C960895E0E0E0932F
:100AD2007702A0917802BB270E94E306F0E0AE0FF6
:100AE200BF1FE0917C02F0E0AE0FBF1F70DFE0930A
:100AF20078020895AA9321970E94D706309709F4A5
:100B020055C0AF81AA3009F44FC0EF81EA93DE01EC
:100B120017966DDFAF01309709F44AC0E0917B026E
:100B2200AE81EA0F3E2FA0917702BB27F0E0EA0FD9
:100B3200FB1F8F010535E0E01E0718F0032F112778
:100B4200C5DFE0917702EA93E0917802EA93E885C3
:100B5200EA930E94E306EA93E1E0EA935A934A9306
:100B6200A7E042DDE0917702AE81EA0FEA93E091DD
:100B72007802EA93E0917B02EA930E94E3060E94E4
:100B8200EA06E0917702EA93A09178020E94E306D6
:100B9200EA0FEA933A93E0917C020E94EA06E4E5C6
:100BA200F0E0E017F10711F491DF02C00093770241
:100BB2000E94420728960895BA93AA931A93EC8149
:100BC200EA93AC810DD0A981BA81ED91A983BA8350
:100BD2001E2FE03019F0A12F8DDFF5CF18811AC03A
:100BE200AA93A981BB27E1DEE0937702A881BB2704
:100BF200EEDEE093780219C0BA93AA93B981A88174
:100C0200109631F0FC81EB816A8161931197E9F7CB
:100C1200EB81FC8125960895AA93E881F0E0E85CD7
:100C2200FD4FA491E9810E94FE0622960895AA939F
:100C32001A93E981E73011F0EA3019F41091750244
:100C420009C0E93019F41091760204C0E830A1F429
:100C520010918502E0917602E03049F0103019F0EF
:100C6200EFEF188129C0EA81E095188125C0103084
:100C720019F4E0E0188120C0EA8118811DC0BA93FE
:100C8200AA93EA81E13021F4E881F981E49114C068
:100C9200E23029F4A881B9810E941A070DC0E3301D
:100CA20041F4A881B981E0918E02F0918F020995F9
:100CB20003C0A881B981EC9123960895AA93EB8190
:100CC200E03029F4E881A981BA81EC9314C0E230C2
:100CD20031F4E881A981BA810E9426070CC0E33071
:100CE20051F4E981FA81FA93EA93AA81E0919002A0
:100CF200F0919102099524960895A2E9B2E0ED914E
:100D0200FD913196FE93EE933197EC56FD4F089587
:100D1200EA0FFB1FEE83FF830895EC85EA93EF81D0
:100D2200F8853196EF83F8873197FA93EA93A0E03A
:100D32000C945F060A93A8890C94DB01EC85EA9374
:100D4200EF81F8853196EF83F8873197089566270A
:100D52007727DF01CB010C9440065A93AA850C94A5
:100D620018060A930395E889EA935A9308955E2F29
:100D7200EC85EA93AF81B885882799270E944006BF
:100D82001E2E08950A930395E889EA93EE85EA9365
:100D9200E985FA853196E987FA873197D8CFBA93F0
:100DA200AA93A881B9810E94370708950E943B0740
:100DB200E0917902F0917A020895F8010F5F1F4FD6
:100DC20004900895E0917902F0917A023196E491CB
:100DD2000895EA93E0E0EA93E0E0F0E0FA93EA9320
:100DE200A9E00C94F502109639F080ED97E0019796
:100DF200F1F7A8951197C9F70895EE230E2EEA2F61
:100E020019F0EE0F0A94E9F70895EE230E2EEA2F59
:100E120019F0E6950A94E9F70895FA9FF02DEB9FF1
:100E2200F00DEA9FE02DF10D0895ED91FC911197DF
:100E32000895E199FECFFF93FFB7F894AEBBBFBB15
:100E4200E09AEDB3FFBFFF910895E19B02C0A89520
:100E5200FCCF9FB7F894AEBBBFBBE09A8DB3E81747
:100E620019F0EDBBE29AE19A9FBF089500240A1699
:100E72000B0608955A934A933A932A931A930A9324
:100E820008955D814C813B812A81198108810895F1
:00000001FF
