:100000000C9478020C9400000C9400000C940000F6
:100010000C9400000C9400000C9400000C94000060
:100020000C9400000C9400000C9400000C94000050
:100030000C9400000C9400000C9400000C94000040
:100040000C9400000C9400000C9400000C94000030
:100050000C94000005072060000000000000000470
:100060000A040007000700147F147F14242A7F2A43
:10007000122313086462364955225000050300001C
:10008000001C2241000041221C00082A1C2A0808EA
:10009000083E080800503000000808080808003032
:1000A00030000020100804023E5149453E00427FC6
:1000B000400042615149462141454B311814127F9D
:1000C0001027454545393C4A494930017109050326
:1000D0003649494936064949291E0036360000008E
:1000E000563600000008142241141414141441223E
:1000F0001408000201510906324979413E7E11116E
:10010000117E7F494949363E414141227F4141228A
:100110001C7F494949417F090901013E4141513252
:100120007F0808087F00417F41002040413F017F58
:10013000081422417F404040407F0204027F7F0438
:1001400008107F3E4141413E7F090909063E415169
:10015000215E7F09192946464949493101017F013C
:10016000013F4040403F1F2040201F7F2018207F3C
:100170006314081463030478040361514945430080
:10018000007F4141020408102041417F0000040229
:100190000102044040404040000102040020545449
:1001A00054787F48444438384444442038444448D0
:1001B0007F3854545418087E090102081454543CE2
:1001C0007F0804047800447D40002040443D000046
:1001D0007F10284400417F40007C041804787C088C
:1001E00004047838444444387C1414140808141463
:1001F000187C7C080404084854545420043F4440AC
:10020000203C4040207C1C2040201C3C4030403C96
:1002100044281028440C5050503C4464544C440032
:100220000836410000007F0000004136080002014E
:100230000204027F4141417F54003000FF0101016F
:100240000101010101010101010101010101019906
:100250005921D1C9014181010519218181812119CA
:10026000050181410101FF010101010101010101BC
:10027000010101010101010101995921D1C90101C6
:10028000010101010101010181613D61810101FF64
:10029000FF0000000000000000000000000000005F
:1002A0000000000000000000C4643411107E6140B2
:1002B0004040211E181134E40400FF00000000003B
:1002C000000000000000000000000000000000002E
:1002D000000000008060180F1860800E3140404020
:1002E000390E00FFFF808080808080808080808049
:1002F00080808080808080808080808083848484EF
:100300008484848486868484848486838080FF8039
:1003100080808080808080808080808080808080DD
:100320008080808080808080838C9090908F83807C
:1003300080808080808080FFFF000000000000003F
:10034000000000000000000000C02020C000C0E04D
:100350006060000000000000F80404F800000000E5
:100360000000FF000000000000000000000000008E
:1003700000000000000000000000000000C0301E6F
:1003800030C0000000000000000000FFFF0000007F
:10039000000000000000000000000000000001015B
:1003A000010003070606000000000080FFF0F0FFD8
:1003B000800000000000FF000000000000000000BE
:1003C00000000000000000000000000000808080AD
:1003D0008798A0A0A098878080808080000000FF80
:1003E000FF8080808080808080808080808080808E
:1003F0008080808080808080808080808080878FE7
:100400009F9F9F9F8F8780808080FF8080808080DB
:100410008080808080808080808080809098949A86
:1004200095909A9C909594909E9690948A848281BF
:10043000808080FF0609300CFEFF8383FFFE0001F1
:10044000010101008486FFFF80800101010101019B
:1004500086C7E3B39F8E010101010101C6C79393D3
:10046000FFFE0001010101003F3F3030FCFC0000B5
:1004700000000101DFDF9B9BFBF300010101010094
:10048000FEFFB3B3F7E60001010101000303E3FB44
:100490001F07000001010000FEFF9393FFFE000113
:1004A00001010100CEDF9B9BFFFE00010101010065
:1004B000FFFF80808080010101010101FFFF3838CA
:1004C000FFFF010100000101000103070F1F3F7F33
:1004D000FF003030000001002D4E414E00494E46D5
:1004E000000003006002D20401007A04D604000078
:1004F000F894EE27ECBBF1E0F5BFE5BF8DE0A2E09C
:10050000BB27ED938A95E9F780E098E0A0E6ED93AC
:100510000197E9F7E2EEF4E085919591009761F09B
:10052000A591B59105901590BF01F00105900D9230
:100530000197E1F7FB01F0CFEFE5EDBFE8E0EEBF9B
:10054000C0E6D2E00C94A4022897E0E0EABBEBBB43
:10055000E7BBE8BBE4BBE5BBE1BBE2BBE3BFE2BF9B
:10056000ECBFEFBDEEBDEDBDECBDE7BDE6BDEBBD47
:10057000EABDE9BDE8BDE2BDE5BDE4BDE3BDE9BF5F
:10058000E5BFE4BFEAB9E0E8E8B9E0E0E0BFE6B91A
:10059000EDB9E6BFE4E5F0E0E883F983E0E0EA8363
:1005A000EB83EC83ED83EE81EC7FEE83E37EEC6006
:1005B000EE83EF81E078E263EF83DE0175D0E0E067
:1005C000EA93EA93E8E3F2E0FA93EA93A0E00E9468
:1005D0005A07E4E3F4E00E941508E5E0EA93E7E057
:1005E000EA93A0E6B2E00E944607F3CFFFCF08955A
:1005F000AA931A93A99818E0FADFE981E07811F03C
:10060000AB9A01C0AB98E981EE0FE983F0DFAC9AB9
:10061000EEDFAC98115081F7A99A18810C94AD07C0
:10062000AA93A898A881E4DFC6C0AA93A89AA88133
:10063000DFDFC1C0AA931A93E981E695E695E695B6
:100640001E2FE4E5E19FF001DF01EA81F0E0EA0F0F
:10065000FB1FE0938002F0938102E12F18810C943C
:10066000F407AA93E981E068AE2FDADFE981EA9323
:10067000A981E0DFE064AE2FD3DF0C94AD07AA932D
:10068000E981EA93A981EDDFE0918002F091810296
:10069000EE57FD4FE0810C94AD07AA930E941A0813
:1006A000A881A083C2DF87C0BA93AA930E94FC08E6
:1006B000A19AA99AA49AAC98A39AA09AA29AAA9845
:1006C000AAE0B0E00E949308AA9AEC81FD813097DD
:1006D00021F1E681E3701E2FEC81FD81E681E69534
:1006E000E695E7700E2FEC81FD81E781EF773E2FD5
:1006F000AC81BD810E94D5080E941508AC81BD81E6
:1007000012960E94D508E0937C02F0937D02AC81A2
:10071000BD8114960E94D5080DC010E003E032E3BD
:10072000E0E0F0E00E941508E0E0F0E0E0937C02F9
:10073000F0937D02E0937E02F0937F02A1E270DFEE
:10074000E12FE460AE2F6CDFE02FE061AE2F68DFB9
:10075000E32FE068AE2F64DFA0E262DFA1E022D0E9
:10076000E1E0E0936302E0E0E0936402E1E0E09323
:100770006902E0936A02E0936B02EFEFE0936C0290
:10078000E1E0E0937302E4E7F2E0FA93EA93EFEF3B
:10079000EA93A8E0B0E00E9494070FD0E1E00E9445
:1007A000030960C0AA93E881E03011F0ECE001C0D9
:1007B000E8E0AE2F35DF219608950E94FC0830E076
:1007C000E0916402E03009F03FEFE0E0EA93A0E05E
:1007D00048DF08EF11E0F80101501040309719F0A0
:1007E000A32F5BDFF8CFE0E0EA93A0E091D30E9473
:1007F00003090C941308AA931A93ED81EA93AD812F
:100800003EDF1E2FE981E73011F0E83039F4EB814B
:10081000EA93AA810E94AF07EB8308C0E33021F47A
:10082000EB81E095EB8302C0E03021F4EA81E095B2
:100830001E2302C0E23029F4EA81AB81EA231E2B99
:100840000EC0E13029F4EA81AB81EA231E2707C0FC
:10085000E43029F4EA81E095AB81EA2B1E23A12F35
:100860001CDF188126960895AA9323970E94FA0800
:10087000A889A43548F4AF85A03330F4AE85A03004
:1008800019F0AD85A03009F4CCC1EE85E887A889C0
:10089000BB27EE85F0E0AE0FBF1FA535E0E0BE0739
:1008A00020F0A889E4E5EA1BEE872D85AF85BB27FC
:1008B000ED85F0E0AE0FBF1FD19720F0AF85E0E3EC
:1008C000EA1BED87A985A63009F05BC0EC85E13015
:1008D00009F4A7C1E33039F4E0917E02F0917F0280
:1008E000309709F49EC10885ED85E695E695E69575
:1008F0003E2FE22FE77019F4AD852A17E9F0A02FFB
:10090000BB27E32FF0E00E94AD08AA85BB850E94BB
:100910002508269526952695532F5F935F5FE22F36
:10092000AF91EA1748F0102FE12F1150E03019F085
:100930000E942A08F9CFF1CFAE850A1711F1EE8592
:10094000AA85BB85F0E00E942508ED85E77009F0D7
:100950003F5F20E02F932F5FE32FAF91AE1788F416
:100960001E851F931F5FE02FAF91AE1718F40E94F2
:100970002A08F7CFEE85AE81BF81F0E00E942508FE
:10098000E9CFEF85E7703E2FED85E03009F449C1EE
:10099000EA85FB85EE83FF8310E00889303009F09B
:1009A00063C0AD85A83008F45AC0E985E03011F085
:1009B000E33009F402C0E73009F402C0E83009F47A
:1009C00002C0E93009F402C0EA3021F40A93A88990
:1009D00048DE04C0E63011F40E9437081F931F5F01
:1009E000EE85AF91AE17A0F5A985A63051F40E940F
:1009F0003B08FA93EA930E941A08A0810E94F60726
:100A000026C0E985E93011F450E00EC0EA3011F457
:100A10005FEF0AC00E943B080E9444085E2FE985F0
:100A2000E73011F0E83021F40E944A085E2F06C03A
:100A3000E33011F4509502C0E03019F4A52FF5DD34
:100A400006C00E944E08EFEFEA93AD85D4DEC6CF14
:100A5000EF85E85FEF87ED85E850ED87D9C05D85CC
:100A600020E0E0E0ED877EC0E32FAD85AE0FA9303A
:100A700020F42D85E0E0ED8703C0E8E0E31B2E2F96
:100A80003A93A22F0E94A4074E2FE985E63011F574
:100A90000E9437081F931F5FEE85AF91AE17C8F411
:100AA0000E941A08E081E423AE2FE32F0E94A508DC
:100AB0000E945408E32FA42F0E94A508E095E1218D
:100AC0005E2B0E943B08FA93EA93A52F0E94F6073B
:100AD000E1CF2CC0E93011F450E003C0EA30A9F4B2
:100AE0005FEF0E944A08AE2FE32F0E949D085E2F01
:100AF0001F931F5FEE85AF91AE1730F40E944E0832
:100B00004A93A0E078DEF4CF11C01F931F5FEE85FB
:100B1000AF91AE1758F40E945F08AE2FE32F0E94EA
:100B20009D08EA934A93AD8566DEEFCFED85E03010
:100B300009F477C0AD85A83028F4ED85E21B5E2F5F
:100B4000E0E003C0532FED85E850ED8710E0EF851E
:100B5000E85FEF87E8E0E31B2E2F0889EA85FB8535
:100B6000EE83FF83E52FF0E0E853FB4F4491E985E6
:100B7000E63011F50E9437081F931F5FEE85AF9195
:100B8000AE17C8F40E941A08E081E423AE2FE22FCA
:100B90000E949D080E945408E22FA42F0E949D08E5
:100BA000E095E1215E2B0E943B08FA93EA93A52F82
:100BB0000E94F607E1CF2CC0E93011F450E003C0E9
:100BC000EA30A9F45FEF0E944A08AE2FE22F0E949C
:100BD000A5085E2F1F931F5FEE85AF91AE1730F40F
:100BE0000E944E084A93A0E006DEF4CF11C01F9386
:100BF0001F5FEE85AF91AE1758F40E945F08AE2FCD
:100C0000E22F0E94A508EA934A93AD85F4DDEFCF69
:100C1000E885AA85BB85F0E0EA0FFB1FEA87FB8722
:100C2000B3CE0E940109619608950E946C081CF0E1
:100C3000E0E0F0E092C1A881B981A435E0E0BE0710
:100C40001CF0E3E5F0E089C1E881F98186C10E94EA
:100C50006C081CF0E0E0F0E080C1A881B981D09779
:100C60001CF0EFE2F0E079C1E881F98176C1AA9346
:100C70001A93AA81A43518F4A981A03330F0E0E0DA
:100C8000F0E060E070E01881AFC1E981E7701E2FED
:100C9000E981E695E695E695E983103011F0EF5F7E
:100CA000E983AA81BB2788279927E981FF2766273F
:100CB00077270E94B508EC5FFF4F6F4F7F4F188179
:100CC00093C1BA93AA9323970E9473088F01002EB1
:100CD000012A19F4E0E0F0E05FC00E947A080F8278
:100CE0000E947A080E820E947A080886EB85A88501
:100CF000EA1718F4E0E0F0E04FC0F8010F5F1F4F73
:100D00005491A885BB27EE27A50FBE1FEB85F0E009
:100D1000EA17FB0718F0E0E0F0E03EC0EE81E69550
:100D2000E695E6954E2FEE81E77009F04F5FEF8173
:100D3000E030A1F0A985BA85EC93A885EB85EA1B84
:100D4000F0E0DF01EF81F0E00E94AD08DF01E42F69
:100D5000F0E00E94AD08E00FF11F1EC09801E52FE2
:100D6000F0E00E0F1F1FA885AF5FA887A150EB858D
:100D7000AE1760F4F9012F5F3F4FA491B0E0E42F6C
:100D8000F0E00E94AD080E0F1F1FEDCFF901E491B6
:100D9000A985BA85EC93F8010E9401092C96089563
:100DA000E0E0E0936502A0916602BB270E947F0805
:100DB000F0E0AE0FBF1FE0916A02F0E0AE0FBF1F80
:100DC00046DFE09366020895AA9321970E94730874
:100DD000309709F455C0AF81AA3009F44FC0EF81B4
:100DE000EA93DE0117966DDFAF01309709F44AC030
:100DF000E0916902AE81EA0F3E2FA0916502BB2708
:100E0000F0E0EA0FFB1F8F010535E0E01E0718F048
:100E1000032F1127C5DFE0916502EA93E091660296
:100E2000EA93E885EA930E947F08EA93E1E0EA9377
:100E30005A934A93A7E018DDE0916502AE81EA0F6C
:100E4000EA93E0916602EA93E0916902EA930E94D4
:100E50007F080E948608E0916502EA93A0916602ED
:100E60000E947F08EA0FEA933A93E0916A020E9497
:100E70008608E4E5F0E0E017F10711F491DF02C025
:100E8000009365020E94010928960895BA93AA93D7
:100E90001A93EC81EA93AC813BD0A981BA81ED91A0
:100EA000A983BA831E2FE03019F0A12F8DDFF5CF73
:100EB000188148C0AA930E94FC08AC81A53000F5B7
:100EC000ED81FE8105910E94900815910E94900885
:100ED00025910E9490083591ED83FE83E885EA9381
:100EE000E885EA930A932A93E1E0EA93EA85FB8591
:100EF000FA93EA93AB85B8DC0A93A22FB8DE04C05C
:100F0000E0E0F0E060E070E00E94030929960895B7
:100F1000AA93A981BB2789DEE0936502A881BB273C
:100F200096DEE093660219C0BA93AA93B981A881AC
:100F3000109631F0FC81EB816A8161931197E9F79A
:100F4000EB81FC8125960895AA93E881F0E0E853AF
:100F5000FB4FA491E9810E949D0822960895AA93CF
:100F60001A93E981E73011F0EA3019F41091630225
:100F700009C0E93019F41091640204C0E830A1F40A
:100F800010917302E0916402E03049F0103019F0E2
:100F9000EFEF188129C0EA81E095188125C0103053
:100FA00019F4E0E0188120C0EA8118811DC0BA93CD
:100FB000AA93EA81E13021F4E881F981E49114C037
:100FC000E23029F4A881B9810E94D9080DC0E3302C
:100FD00041F4A881B981E0917C02F0917D020995EC
:100FE00003C0A881B981EC9123960895AA93EB815F
:100FF000E03029F4E881A981BA81EC9314C0E23091
:1010000031F4E881A981BA810E94E5080CC0E3307F
:1010100051F4E981FA81FA93EA93AA81E0917E0280
:10102000F0917F02099524960895E0936702F0936A
:1010300068020895A0E8B2E0ED91FD913196FE932B
:10104000EE933197EE57FD4F0895EA0FFB1FEE83A5
:10105000FF830895EC85EA93EF81F8853196EF835D
:10106000F8873197FA93EA93A0E00C94F6070A9375
:10107000A8890C941A03EC85EA93EF81F8853196E0
:10108000EF83F8873197089566277727DF01CB0133
:101090000C94D7075A93AA850C94AF070A9303952B
:1010A000E889EA935A9308955E2FEC85EA93AF811D
:1010B000B885882799270E94D7071E2E08950A937E
:1010C0000395E889EA93EE85EA93E985FA853196F6
:1010D000E987FA873197D8CFBA93AA93A881B981C3
:1010E0000E94F60808950E94FA08E0916702F091C4
:1010F00068020895F8010F5F1F4F04900895E09172
:101100006702F09168023196E4910895EA93E0E075
:10111000EA93E0E0F0E0FA93EA93A9E00C94340457
:10112000ED83FE830895109639F080ED97E00197E6
:10113000F1F7A8951197C9F70895EE230E2EEA2F1F
:1011400019F0EE0F0A94E9F70895EE230E2EEA2F18
:1011500019F0E6950A94E9F70895FA9FF02DEB9FB0
:10116000F00DEA9FE02DF10D08957A9F702D6B9F91
:10117000700DF89F700DE99F700D6A9F602D710DC5
:10118000FB9F600D711DE89F600D711D8827FA9F00
:10119000F02D610D781FEB9FF00D611D781FEA9F08
:1011A000E02DF10D681F781F0895ED91FC911197C6
:1011B0000895E199FECFFF93FFB7F894AEBBBFBB94
:1011C000E09AEDB3FFBFFF910895E19B02C0A8959F
:1011D000FCCF9FB7F894AEBBBFBBE09A8DB3E817C6
:1011E00019F0EDBBE29AE19A9FBF089500240A1618
:1011F0000B0608955A934A933A932A931A930A93A3
:1012000008955D814C813B812A811981088108956F
:00000001FF
